:1000940048656C6C6F20576F726C642100B4F3BCBC
:1000A400D2BAC3A3A100BBB6D3ADCAB9D3C3353149
:1000B400BFAAB7A2B0E500BAC3BAC3D1A7CFB0CC28
:0800C400ECCCECCFF2C9CF0037
:10005C001200CC7BFF7A007994E4FDFF1200037B45
:10006C00FF7A0079A17D01E4FF1200037BFF7A0087
:10007C0079AA7D02E4FF1200037BFF7A0079BB7D35
:08008C0003E4FF12000380FEF3
:10010B00C2A6C2A5C2A78F807F057E001200EDD2CA
:0B011B00A77F057E001200EDC2A722A6
:10012600D2A6C2A5C2A78F807F057E001200EDD29F
:0B013600A77F057E001200EDC2A7228B
:1000CC00D2B2C2B37F197E001200EDD2B37F3012D0
:1000DC00010B7F0C12010B7F0612010B7F01020139
:0100EC000B08
:050171007F0102010BFB
:100003008B088A09890AEDD394005002E4FDEDD3ED
:10001300940340027D0353070FED14600F14601126
:1000230014601324037012430780800D43079080EC
:1000330008430788800343079812010BAB08AA09FA
:10004300A90A120141FF60101201267401250AF565
:090053000AE43509F50980E422F4
:0B016600EF1FAC0670011E4C70F6226B
:1000ED00D3EF9400EE940040147D6E7C00ED1D70F6
:0D00FD00011CED4C70F7EF1F70E61E80E354
:01010A0022D2
:0300000002015AA0
:0C015A00787FE4F6D8FD75810A02005C95
:10014100BB010689828A83E0225002E722BBFE02BC
:09015100E32289828A83E49322EF
:00000001FF
