:0300000002018278
:0C018200787FE4F6D8FD758120020003B0
:10017000AD071FED600BE4FEEEC3946450F20E80F9
:01018000F787
:01018100225B
:03018E00120191CA
:06019100E4FF0FBF01FCBA
:010197002245
:10014800C2A6D2A5D2A700000000E580339200C263
:03015800A7A2005B
:01015B002281
:1001150012014840FBC2A6C2A5C2A700008F8000FD
:0C012500000000D2A700000000C2A722CA
:07019800EF4480FF02011596
:10013100D2A6C2A5C2A700008F8000000000D2A7EE
:0701410000000000C2A7222C
:1000AA007F381201157F011201707F0C1201157F32
:1000BA00011201707F061201157F011201707F0182
:0600CA0012011502017095
:0900F40075F00A84E5F02430FDEA
:1000FD00AC05AB077F0A120170AF03120198AF0474
:08010D001201317F01020170B3
:10015C00D290120191C2907F19120170D2901201AB
:04016C008E0201916D
:1000D000E4FD3090FD12018E120191E4FE3090019A
:1000E0000E2090FDE50C25E0F50CEE420C0DBD0850
:0300F000E1AF0C71
:0100F30022EA
:1000660012015CD29020903B3090FD2090FD120052
:10007600D0A9071200D0AC071200D0AB071200D0EF
:10008600AA071200D0AE07C290E4FD1201910DBD81
:1000960007F9D290E92C2B2AB5060889088C0A8B19
:0300A600098A0BB9
:0100A9002234
:100003001200AA1200667D52E4FF1200FD7D3A7FC2
:10001300011200FDE50875F00A842430FD7F021209
:1000230000FDE5087F031200F47D257F041200FD27
:100033007D547F401200FD7D3A7F411200FDE509AA
:1000430075F00A842430FD7F421200FDE5097F43E9
:100053001200F47DDF7F441200FD7D437F451200D3
:03006300FD80A07D
:00000001FF
