:0300000002037D7B
:0C037D00787FE4F6D8FD7581730203C49C
:0806FF007F6C7E91DEFEDFFC42
:0107070022CF
:0B06E900C2971206FF1206FFD29722F4
:10066E00E4F565FFFE3097FD3097030E80FAEED36A
:10067E0094064003430701EF25E0FF0EEEC39408F6
:02068E0040E347
:010690002247
:1004F2001206E92097FD209704056280F9E562C3A0
:10050200940F40512097FD12066E7563008F64E5CB
:1005120064756400F56312066EEF2564F564E435D4
:1005220063F56312066EAD07ED7D00FC12066EEDFB
:100532002FFDE43CFC12066E8F6FECAB052BFBE546
:10054200632BFFEF2564FFEFB56F0A8C728D738505
:05055200637085647177
:010557002281
:1005F700E4FFD290FEC291000030900D7401A8066E
:10060700088002C333D8FC42070000D290D2910081
:07061700000EBE08E0C291D5
:01061E0022B9
:10069100E4FEC2910000EF30E004D2908002C290EB
:1006A1000000D2910000EFC313FF0EBE08E4C29117
:0106B1002226
:0D000600D292120691AF05120691C292220D
:0C06C200E4FED2921206911205F7C292DB
:0106CE002209
:1006B200C292C291E4FD7F8E1200067F8002000684
:10048B000C160011030305143900009602E40E0844
:10049B00C8D5D2BBB6FEC800CBC4CEE5C1F910227D
:1004AB00323020202F20202F202020202020202001
:1004BB0010322020202020203A20203A20202020FB
:1004CB0020201042CEC2B6C83A20202E2043202036
:1004DB00202020201052CAAAB6C83A20202E202550
:0604EB002020202020204B
:10019C00756217756302756426E4F56575662175DD
:1001AC0067497F8D1206C28F627F891206C28F63E8
:1001BC007F871206C28F647F8B1206C28F657F8584
:1001CC001206C28F667F831206C28F677F8112066A
:1001DC00C2E562C4540F75F00AA4FEE562540F2EFA
:1001EC00F517E563C4540F75F00AA4FEE563540FCC
:1001FC002EF518E564C4540F75F00AA4FEE564549A
:10020C000F2EF51985651AE566C4540F75F00AA40E
:10021C00FEE566540F2EF51BE567C4540F75F00A06
:10022C00A4FEE567540F2EF51CEFC4540F75F00AAD
:08023C00A4FEEF540F2EF51D86
:010244002297
:1002EA00E51775F00A84C454F0FFE51775F00A841F
:1002FA00E5F02FFDE51875F00A84C454F0FFE518FF
:10030A0075F00A84E5F02FF56AE51975F00A84C4D8
:10031A0054F0FFE51975F00A84E5F02FF56B851A9C
:10032A006CE51B75F00A84C454F0FFE51B75F00AEE
:10033A0084E5F02FF56DE51C75F00A84C454F0FFCE
:10034A00E51C75F00A84E5F02FF56E7F8C12000625
:10035A00AD6A7F88120006AD6B7F86120006AD6C0F
:10036A007F8A120006AD6D7F84120006AD6E7F8211
:03037A0002000678
:0B06F400D288D28AD2A8D2AAD2AF22AC
:100016001206471206B21206F4D2971202EAE51643
:10002600700312019C1204F285721E85731F85707F
:1000360020857121E51775F00A842430F524E5172B
:1000460075F00A84E5F02430F525E51875F00A8484
:100056002430F527E51875F00A84E5F02430F528F4
:10006600E51975F00A842430F52AE51975F00A8435
:10007600E5F02430F52BE51B75F00A842430F536BF
:10008600E51B75F00A84E5F02430F537E51C75F0BC
:100096000A842430F539E51C75F00A84E5F024302D
:1000A600F53AE51D75F00A842430F53CE51D75F03A
:1000B6000A84E5F02430F53DAE1EAF1F7C007D645A
:1000C600120436EF2430F547AE1EAF1F7C007D6468
:1000D6001204367E007F0ACFCDCFCECCCE120436A8
:1000E600EF2430F548AE1EAF1F7C007D0A120436A1
:1000F600ED2430F54AAE20AF217C007D6412043633
:10010600EF2430F557AE20AF217C007D6412043613
:100116007E007F0ACFCDCFCECCCE120436EF243070
:10012600F558AE20AF217C007D0A120436ED24304E
:10013600F55A7565007566007567227B0AE4FD7FD2
:10014600011205587565007566007567327B10E407
:10015600FD7F02120558E51A75F002A42408F9E499
:10016600F565F56689677B027D067F011205587580
:1001760065007566007567427B10E4FD7F03120516
:10018600587565007566007567527B10E4FD7F043F
:06019600120558020024CE
:030003000205AA49
:1005AA00C0E0C0F0C083C082C0D075D000C000C017
:1005BA0001C002C003C004C005C006C0071206FF7E
:1005CA0020B20F0516E516D3940640061202EA7504
:1005DA001600D007D006D005D004D003D002D0012F
:0D05EA00D000D0D0D082D083D0F0D0E0324D
:03001300020245A1
:10024500C0E0C0F0C083C082C0D075D000C000C07F
:1002550001C002C003C004C005C006C0071206FFE6
:1002650020B367E51624FE601B1460261460311464
:10027500603C1460442405704E0517E517D394635C
:100285004048803E0518E518D3940C403D7518018B
:1002950080380519E519D3941F402F751901802A57
:1002A500051AE51AD394064021751A00801C051B12
:1002B500E51BD3941740138009051CE51CD3943B1B
:1002C50040087517008003751600D007D006D005C5
:1002D500D004D003D002D001D000D0D0D082D083BA
:0502E500D0F0D0E03272
:08061F00C2A68F807F057E005A
:10062700E4FDFCC3ED9FEC9E5015E4FBFA0BBB0009
:0F063700010AEB646E4A70F50DBD00010C80E402
:010646002291
:0D06CF00C2A712061FD2A5120627C2A5223F
:0D06DC00D2A712061FD2A5120627C2A52222
:020558008B64B2
:10055A00EF24FE60111460151460192403701AED5B
:10056A002480F5688013ED2490F568800CED2488CA
:10057A00F5688005ED2498F568AF681206CFE4F5B2
:10058A0069E569C395645017AB65AA66A967856969
:0F059A0082758300120409FF1206DC056980E2F6
:0105A900222F
:100647007F0A7E00120627D2A4D2A37F301206CFDC
:100657001206237F0C1206CF1206237F011206CF44
:070667007F057E000206275B
:10038900020016E493A3F8E493A34003F68001F274
:1003990008DFF48029E493A3F85407240CC8C33375
:1003A900C4540F4420C8834004F456800146F6DF44
:1003B900E4800B010204081020408090048BE47E45
:1003C900019360BCA3FF543F30E509541FFEE49339
:1003D900A360010ECF54C025E060A840B8E493A300
:1003E900FAE493A3F8E493A3C8C582C8CAC583CA2B
:1003F900F0A3C8C582C8CAC583CADFE9DEE780BEE3
:0104F100000A
:10040900BB010CE58229F582E5833AF583E02250A8
:1004190006E92582F8E622BBFE06E92582F8E222F2
:0D042900E58229F582E5833AF583E493220C
:10043600BC000BBE0029EF8DF084FFADF022E4CCAA
:10044600F875F008EF2FFFEE33FEEC33FCEE9DEC73
:10045600984005FCEE9DFE0FD5F0E9E4CEFD22EDB9
:10046600F8F5F0EE8420D21CFEADF075F008EF2F03
:10047600FFED33FD4007985006D5F0F222C398FDF4
:050486000FD5F0EA2291
:00000001FF
