:030000000206E60F
:0C06E600787FE4F6D8FD75814102035FC7
:10058C0053686964753A0057656E64753A00256462
:10059C00002E002500430048756D693A25642E2510
:1005AC0064200A0054656D703A25642E256420A1E0
:0405BC00E3430A000B
:10035F0012068F7590F01206B87BFF7A05798CE440
:10036F00FDFF1205EA7BFF7A0579937D01E4FF1209
:10037F0005EA7F967E0012065A120515750BFF755A
:10038F000C05750D9A853A0E853B0F7B007A007927
:10039F002212005F750BFF750C05750D9A853C0ECB
:1003AF00853D0F7B007A00792812005F750BFF7572
:1003BF000C05750D9A853E0E853F0F7B007A0079EF
:1003CF002E12005F750BFF750C05750D9A85400E8B
:1003DF0085410F7B007A00793412005F7F647E00C5
:1003EF0012065A7B007A007922E4FD7F071205EA94
:1003FF007BFF7A05799DE4FD7F091205EA7B007A80
:10040F00007928E4FD7F0A1205EA7BFF7A05799FC0
:10041F00E4FD7F0B1205EA7B007A00792E7D017FC8
:10042F00071205EA7BFF7A05799D7D017F09120589
:10043F00EA7B007A0079347D017F0A1205EA7BFF9F
:10044F007A0579A17D017F0B1205EA7BFF7A057989
:10045F00A3853A0B853B0C853C0D853D0E1200653F
:10046F007BFF7A0579B0853E0B853F0C85400D8566
:08047F00410E12006502038129
:10067800D2B67F021206F2C2B67F147E0012065A64
:07068800D2B67F0D0206F25D
:1005C000E4F515F51430B6FD7F1E1206F2E515258B
:1005D000E0F51530B605431501800020B6FD051481
:0905E000E514C3940840DEAF15D8
:0105E90022EF
:10051500120678D2B620B66E30B6FD1205C0750843
:10052500008F091205C0750A008F0B1205C0750CE6
:10053500008F0D1205C0750E008F0F1205C0E5095D
:10054500250BFDE508350AFCE50D2DFDE50C3CFC0C
:10055500E50F2DFDE50E3CFCEF7A00B50510EAB57B
:10056500040C850910850B11850D12850F13753A3D
:100575000085103B753C0085113D753E0085123F99
:06058500754000851341E2
:01058B00224D
:0306F200DFFE2206
:10065A00D3EF9400EE940040147D6E7C00ED1D7083
:0D066A00011CED4C70F7EF1F70E61E80E3E1
:010677002260
:10068F00758920759840D29C758DFD758BFDD2991B
:05069F00D28ED2AF2253
:0D06CC00C2A5120639D2A712063DC2A72210
:0D06D900D2A5120639D2A712063DC2A722F3
:1006A400ED70048F0B8005EF2440F50BE50B4480BF
:0406B400FF0206CC6F
:1005EA008B088A09890A1206A4AB08AA09A90A1261
:1005FA0004876013050AE50A7002050914F9120452
:08060A0087FF1206D980E222ED
:1006B8007F381206CC7F0C1206CC7F061206CC7F40
:0406C800010206CC59
:08063900C2A68F807F017E0044
:10064100D3EF9400EE9400400F7D267C82DCFEDD2A
:08065100FAEF1F70EB1E80E8B8
:01065900227E
:10048700BB010689828A83E0225002E722BBFE0273
:09049700E32289828A83E49322A6
:10000300E517240BF8E60517227808300702780B6A
:10001300E475F0011204DF0204872000EB7F2ED287
:10002300008018EF540F2490D43440D4FF30040BD5
:10003300EF24BFB41A0050032461FFE518600215D2
:1000430018051BE51B7002051A30070D7808E475C7
:10005300F0011204DFEF0204CD0206127403D2078B
:100063008003E4C207F5178B088A09890AE4F518A7
:10007300F51AF51BE51860077F2012003E80F57521
:1000830019FFC201C200C202C203C205C206C208EE
:1000930012000CFF700D3007057F0012004FAF1BDD
:1000A300AE1A22B4255FC2D5C20412000CFF24D0BD
:1000B300B40A00501A75F00A781830D50508B6FF4F
:1000C3000106C6A426F620D5047002D20380D924E3
:1000D300CFB41A00EF5004C2E5D20402024FD2019A
:1000E30080C6D20080C0D20280BCD2D580BAD205ED
:1000F30080B47F2012003E2002077401B51800402F
:10010300F1120003FF12003E020077D208D20680EC
:1001130095120003FB120003FA120003F94A4B7015
:100123000679207A037BFF20022EE518602A7E00E1
:100133008E827583001204A060060EEE651970F0BE
:10014300C2D5EBC0E0EAC0E0E9C0E0EE120296D00F
:10015300E0F9D0E0FAD0E0FB120487FF60AAEBC01D
:10016300E0EAC0E0E9C0E012003ED0E02401F9D0AB
:10017300E03400FAD0E0FBE5190460DCD519D9803E
:10018300877BFF7A027992D202809C791080027970
:1001930008C206C2088008D2D5790A8004790AC247
:1001A300D5E519047002F519E4FAFDFEFF12000308
:1001B300FC7B08200113120003FD7B1030000A12A0
:1001C3000003FE120003FF7B20EC3382D592D5504F
:1001D30013C3E43000069FFFE49EFEE42001039D69
:1001E300FDE49CFCE4CBF8C201EC700CCFCECDCC8B
:1001F300E824F8F870F38017C3EF33FFEE33FEED16
:1002030033FDEC33FCEB33FB994002FB0FD8E9EBF6
:10021300300105F8D0E0C448B201C0E00AEC4D4E0D
:100223004F78207B0070C2EAB5190040BCC0E012D1
:100233000298D0F0D0E0200104C4C0E0C4B201C0F1
:10024300F0120027D0F0D5F0EB0200771204EF0193
:100253001453018E5800E54C00E14201924F019A7C
:0F02630044019A4900FA4301A0550184460184E1
:100272004501844703405000E92D00ED2E01102B6B
:1002820000F123010E2003292A00A94800000108D9
:100292003F3F3F00790AA2D5200314300509B91067
:1002A200020404B9080104A2D52006025001042068
:1002B20002689202B518005034C0E07F2030031962
:1002C2007F30A20272067205500F1202EFC202C202
:1002D20006C205C2087F30800F300503E9C0E01274
:1002E200003E300503D0E0F9D0E0B518CC30051758
:1002F2007F30B9100C12003E7F583004077F78809F
:1003020003B9080312003E3002057F2D02003E7F32
:10031200202008F87F2B2006F322920280CF286E3D
:10032200756C6C2900D2011200033001F8C2017809
:100332001830D50108F60200A92D50434958120081
:10034200032403B405004001E490033B9312002F01
:0D035200743A12002FD20375180402018EB8
:1004A000BB010CE58229F582E5833AF583E0225011
:1004B00006E92582F8E622BBFE06E92582F8E2225B
:0D04C000E58229F582E5833AF583E4932275
:1004CD00BB010689828A83F0225002F722BBFE010E
:0204DD00F32208
:1004DF00FAE6FB0808E6F925F0F618E6CA3AF6221E
:1004EF00D083D082F8E4937012740193700DA3A39C
:1004FF0093F8740193F5828883E4737402936860B0
:06050F00EFA3A3A380DFAF
:10061200EFB40A07740D12061D740A309811A899D6
:10062200B8130CC2983098FDA899C298B811F63048
:0706320099FDC299F5992220
:00000001FF
