:0300000002036E8A
:0C036E00787FE4F6D8FD7581770203B5B6
:0806F0007F6C7E91DEFEDFFC51
:0106F80022DF
:0B06DA00C2971206F01206F0D2972221
:10065F00E4F577FFFE3097FD3097030E80FAEED367
:10066F0094064003430701EF25E0FF0EEEC3940805
:02067F0040E356
:010681002256
:1004E3001206DA2097FD209704057480F9E574C39A
:1004F300940F40512097FD12065F7575008F76E5C6
:1005030076757600F57512065FEF2576F576E43598
:1005130075F57512065FAD07ED7D00FC12065FED04
:100523002FFDE43CFC12065F8F6FECAB052BFBE564
:10053300752BFFEF2576FFEFB56F0A8C728D7385F0
:05054300757085767162
:010548002290
:1005E800E4FFD290FEC291000030900D7401A8067D
:1005F800088002C333D8FC42070000D290D2910091
:07060800000EBE08E0C291E4
:01060F0022C8
:10068200E4FEC2910000EF30E004D2908002C290FA
:100692000000D2910000EFC313FF0EBE08E4C29126
:0106A2002235
:0D000600D292120682AF05120682C292222B
:0C06B300E4FED2921206821205E8C29208
:0106BF002218
:1006A300C292C291E4FD7F8E1200067F8002000693
:08061000C2A68F807F057E0069
:10061800E4FDFCC3ED9FEC9E5015E4FBFA0BBB0018
:0F062800010AEB646E4A70F50DBD00010C80E411
:0106370022A0
:0D06C000C2A7120610D2A5120618C2A5226C
:0D06CD00D2A7120610D2A5120618C2A5224F
:020549008B64C1
:10054B00EF24FE60111460151460192403701AED6A
:10055B002480F5688013ED2490F568800CED2488D9
:10056B00F5688005ED2498F568AF681206C0E4F5D0
:10057B0069E569C395645017AB65AA66A967856978
:0F058B00827583001203FAFF1206CD056980E224
:01059A00223E
:100638007F0A7E00120618D2A4D2A37F301206C009
:100648001206147F0C1206C01206147F011206C08F
:070658007F057E0002061879
:10047C000C160011030305143900009602E40E0853
:10048C00C8D5D2BBB6FEC800CBC4CEE5C1F910228C
:10049C00323020202F20202F202020202020202010
:1004AC0010322020202020203A20203A202020200A
:1004BC0020201042CEC2B6C83A20202E2043202045
:1004CC00202020201052CAAAB6C83A20202E20255F
:0604DC002020202020205A
:10018D00756217756302756426E4F56575662175EC
:10019D0067497F8D1206B38F627F891206B38F6315
:1001AD007F871206B38F647F8B1206B38F657F85B1
:1001BD001206B38F667F831206B38F677F81120697
:1001CD00B3E562C4540F75F00AA4FEE562540F2E18
:1001DD00F517E563C4540F75F00AA4FEE563540FDB
:1001ED002EF518E564C4540F75F00AA4FEE56454A9
:1001FD000F2EF51985651AE566C4540F75F00AA41E
:10020D00FEE566540F2EF51BE567C4540F75F00A15
:10021D00A4FEE567540F2EF51CEFC4540F75F00ABC
:08022D00A4FEEF540F2EF51D95
:0102350022A6
:1002DB00E51775F00A84C454F0FFE51775F00A842E
:1002EB00E5F02FFDE51875F00A84C454F0FFE5180E
:1002FB0075F00A84E5F02FF56AE51975F00A84C4E8
:10030B0054F0FFE51975F00A84E5F02FF56B851AAB
:10031B006CE51B75F00A84C454F0FFE51B75F00AFD
:10032B0084E5F02FF56DE51C75F00A84C454F0FFDD
:10033B00E51C75F00A84E5F02FF56E7F8C12000634
:10034B00AD6A7F88120006AD6B7F86120006AD6C1E
:10035B007F8A120006AD6D7F84120006AD6E7F8220
:03036B0002000687
:0B06E500D288D28AD2A8D2AAD2AF22BB
:100016001206381206A31206E5D2971202DBE5167F
:10002600700312018DE51775F00A842430F524E576
:100036001775F00A84E5F02430F525E51875F00A01
:10004600842430F527E51875F00A84E5F02430F5A8
:1000560028E51975F00A842430F52AE51975F00AA1
:1000660084E5F02430F52BE51B75F00A842430F581
:1000760036E51B75F00A84E5F02430F537E51C7586
:10008600F00A842430F539E51C75F00A84E5F0247D
:1000960030F53AE51D75F00A842430F53CE51D750A
:1000A600F00A84E5F02430F53DAE1EAF1F7C007DDE
:1000B60064120427EF2430F547AE1EAF1F7C007D87
:1000C600641204277E007F0ACFCDCFCECCCE120499
:1000D60027EF2430F548AE1EAF1F7C007D0A1204C0
:1000E60027ED2430F54AAE20AF217C007D64120452
:1000F60027EF2430F557AE20AF217C007D64120433
:10010600277E007F0ACFCDCFCECCCE120427EF2498
:1001160030F558AE20AF217C007D0A120427ED246D
:1001260030F55A7565007566007567227B0AE4FD31
:100136007F011205497565007566007567327B108B
:10014600E4FD7F02120549E51A75F002A42408F9B8
:10015600E4F565F56689677B027D067F0112054930
:100166007565007566007567427B10E4FD7F0312B6
:1001760005497565007566007567527B10E4FD7F5D
:0701860004120549020024E8
:0300030002059B58
:10059B00C0E0C0F0C083C082C0D075D000C000C026
:1005AB0001C002C003C004C005C006C0071206F09C
:1005BB0020B20F0516E516D3940640061202DB7522
:1005CB001600D007D006D005D004D003D002D0013E
:0D05DB00D000D0D0D082D083D0F0D0E0325C
:03001300020236B0
:10023600C0E0C0F0C083C082C0D075D000C000C08E
:1002460001C002C003C004C005C006C0071206F004
:1002560020B367E51624FE601B1460261460311473
:10026600603C1460442405704E0517E517D394636B
:100276004048803E0518E518D3940C403D7518019A
:1002860080380519E519D3941F402F751901802A66
:10029600051AE51AD394064021751A00801C051B21
:1002A600E51BD3941740138009051CE51CD3943B2A
:1002B60040087517008003751600D007D006D005D4
:1002C600D004D003D002D001D000D0D0D082D083C9
:0502D600D0F0D0E03281
:10037A00020016E493A3F8E493A34003F68001F283
:10038A0008DFF48029E493A3F85407240CC8C33384
:10039A00C4540F4420C8834004F456800146F6DF53
:1003AA00E4800B010204081020408090047CE47E63
:1003BA00019360BCA3FF543F30E509541FFEE49348
:1003CA00A360010ECF54C025E060A840B8E493A30F
:1003DA00FAE493A3F8E493A3C8C582C8CAC583CA3A
:1003EA00F0A3C8C582C8CAC583CADFE9DEE780BEF2
:0104E2000019
:1003FA00BB010CE58229F582E5833AF583E02250B8
:10040A0006E92582F8E622BBFE06E92582F8E22201
:0D041A00E58229F582E5833AF583E493221B
:10042700BC000BBE0029EF8DF084FFADF022E4CCB9
:10043700F875F008EF2FFFEE33FEEC33FCEE9DEC82
:10044700984005FCEE9DFE0FD5F0E9E4CEFD22EDC8
:10045700F8F5F0EE8420D21CFEADF075F008EF2F12
:10046700FFED33FD4007985006D5F0F222C398FD03
:050477000FD5F0EA22A0
:00000001FF
