:030000000201F109
:0C01F100787FE4F6D8FD75811C0200A4A4
:08020700D2A0E4F580C2A022A0
:03020F00DFFE22ED
:1001BB00AE07AF061EEF600C7FF512020F7FF51234
:0501CB00020F80EE228E
:1001E1007580FFC290D291C2A500D2A5E5803322CD
:0C0139007F381201457F051201BB7F38A2
:100145001201E140FBC290C291D2A58F8000C2A5E9
:010155002287
:1001D0001201E140FBD290C291D2A58F8000C2A54E
:0101E00022FC
:0A01FD007F011201457F050201BBDE
:1000D400AE07ED7005EE24808003EE24C0FF12010C
:1000E40045120173FF600C1201D0740129F9E43A3E
:0400F400FA80EE227E
:10018C00AE07AC03ED7005EE24808003EE24C0FFB7
:08019C00120145AF040201D07D
:1000F8001201397F051201BB1201397F081201452F
:100108007F011201457F061201451F1201BB7F0CBA
:030118000201459C
:03021200DFFE22EA
:10011B00D3EF9400EE940040147D6E7C00ED1D70C7
:0D012B00011CED4C70F7EF1F70E61E80E325
:0101380022A4
:1001A400D2B67F02120212C2B67F147E0012011B65
:0701B400D2B67F1E02021209
:10015600E4FEFD30B6FD7F08120212EE25E0FE3009
:0C016600B6010E20B6FD0DBD08E9AF0685
:01017200226A
:100003001201A430B6030200A330B6FD7F2812020A
:10001300121201568F171201568F181201568F199B
:10002300120156A9071201568F1C7F19120212E5FD
:10003300172518FFE433FE7C00EF2519FFEC3EFE85
:10004300E92FFFEC3EFEEFB51C0DECB50609AA1730
:1000530085181AAB19891BEA75F00A842430F50850
:10006300EA75F00A84E5F02430F509750A20750B6A
:1000730052750C48750D20750E20750F20751020D4
:10008300EB75F00A842430F511EB75F00A84E5F082
:100093002430F51275132075144375152075162039
:0100A300223A
:1000A4001202071200F81201FD7FDC7E0512011B0B
:1000B400120003900000AF82AE8274082EF8E6FBB3
:1000C4007D0112018CA3E582640F458370E880E012
:10017300BB010689828A83E0225002E722BBFE028A
:09018300E32289828A83E49322BD
:00000001FF
