:1003220010110000000000000000000000000000AA
:0C033200000008092010060123595502A4
:0902DB007F3812039B7F057E00B1
:1002E400E4FDFCC3ED9FEC9E5015E4FBFA0BBB0050
:0F02F400010AEB64704A70F50DBD00010C80E447
:0103030022D7
:10033F00D3EF9400EE9400400800EF1F70F21E8080
:02034F00EF229B
:10035100D2A27F147E0012033FC2A27F147E00024C
:02036100033F58
:0B039B00C2A0C2A1D2A28F80020351B9
:0B03A600D2A0C2A1D2A28F800203519E
:10036300ED7006EF2480FC8004EF24C0FCAF040290
:02037300039BEA
:050375002430FB7F04B1
:08037A00120363AF030203A6A6
:0C038F007F0112039B7F057E000202E448
:100304001202DB1202DB7F3812039B7F0812039B6D
:0E0314007F011202DD1F1202DD7F0C02039B2F
:05002500C293C291220C
:10026E00D2935307FEE4FEEF30E004D2928002C236
:10027E0092D291C291EFC313FF0EBE08EAE4FEEDD7
:10028E0030E004D2928002C292D291C291EDC31399
:07029E00FD0EBE08EAC29349
:0102A5002236
:10023300D293430701E4FDEF30E004D2928002C27F
:1002430092D291C291EFC313FF0DBD08EAE4FDEE14
:10025300C313FE309205430680800353067FD29179
:0A026300C2910DBD08E9C293AF0679
:01026D00226E
:1001ED00E4FD7F8E12026E7D807F8012026EAD0A5D
:1001FD007F8C12026EAD0B7F8812026EAD0C7F8666
:10020D0012026EAD0D7F8412026EAD0E7F82120250
:10021D006EAD0F7F8012026EAD107F8A12026E7D61
:06022D00807F8E02026ECC
:1002A6007F8C1202338F0A7F881202338F0B7F8670
:1002B6001202338F0C7F841202338F0D7F8212025B
:1002C600338F0E7F80120233EF547FF50F7F8A1231
:0502D60002338F10222D
:10002E00E5112430FBE4FD7F0312037AE51212037F
:10003E0075E5132430FB7F0512037AE5142430FB9B
:10004E007F0612037A7B2F7F0712037AE515243081
:10005E00FB7F0812037AE5162430FB7F0912037A20
:10006E007B2F7F0A12037AE5172430FB7F0B1203D6
:10007E007AE5182430FB7F0C12037AE51F2430FB3F
:10008E007F0F12037AE5192430FB0D7F0312037ADA
:10009E00E51A1203757B3A7F0512037AE51B2430AD
:1000AE00FB7F0612037AE51C2430FB7F0712037ACE
:1000BE007B3A7F0812037AE51D2430FB7F09120379
:0B00CE007AE51E2430FB7F0A02037A53
:03002B000201656A
:0D016500C0E0C0D075D000C005C006C007C6
:10017200C2CF0508E50864047066F5081202A6E518
:1001820009C4540FF511E509540FF512E50AC454D8
:100192000FF513E50A540FF514E50BC4540FF515CA
:1001A200E50B540FF516E50CC4540FF517E50C5486
:1001B2000FF518E5105407F51FE50DC4540FF51996
:1001C200E50D540FF51AE50EC4540FF51BE50E5458
:1001D2000FF51CE50FC4540FF51DE50F540FF51E66
:0B01E200D007D006D005D0D0D0E0320E
:0D03820075CB3C75CAB0D2CAD2ADD2AF2245
:100003007F327E001202E412030412038F120025D2
:100013007F0A7E001202E41201ED12038212002E07
:0200230080FB60
:030000000200D922
:0C00D900787FE4F6D8FD7581200201203C
:1000E500020003E493A3F8E493A34003F68001F22E
:1000F50008DFF48029E493A3F85407240CC8C3331C
:10010500C4540F4420C8834004F456800146F6DFEA
:10011500E4800B0102040810204080900322E47E55
:10012500019360BCA3FF543F30E509541FFEE493DF
:10013500A360010ECF54C025E060A840B8E493A3A6
:10014500FAE493A3F8E493A3C8C582C8CAC583CAD1
:10015500F0A3C8C582C8CAC583CADFE9DEE780BE89
:01033E0000BE
:00000001FF
