:10122A00101A00000000000000000000000000008A
:10123A00000002180000020B000108102022050518
:04124A000930000562
:0700030012138E7F0A7E003C
:10000A00E4FDFCC3ED9FEC9E5015E4FBFA0BBB002C
:0F001A00010AEB64704A70F50DBD00010C80E423
:0100290022B4
:10133100D3EF9400EE9400400800EF1F70F21E807E
:02134100EF2299
:03138400121387BA
:06138700E4FF0FBF01FCB2
:01138D00223D
:10134300AD071FED600BE4FEEEC3946450F20E8014
:01135300F7A2
:011354002276
:05138E00C293C2912290
:10119600D2935307FEE4FEEF30E004D2928002C2FF
:1011A60092D291C291EFC313FF0EBE08EAE4FEEDA0
:1011B60030E004D2928002C292D291C291EDC31362
:0711C600FD0EBE08EAC29312
:0111CD0022FF
:10112200D293430701E4FDEF30E004D2928002C281
:1011320092D291C291EFC313FF0DBD08EAE4FDEE16
:10114200C313FE309205430680800353067FD2917B
:0A115200C2910DBD08E9C293AF067B
:01115C002270
:10101100E4FD7F8E1211967D807F801211967DA94D
:101021007F90121196AD117F8C121196AD127F88AF
:10103100121196AD137F86121196AD147F84121191
:1010410096AD157F82121196AD167F80121196AD65
:0D105100177F8A1211967D807F8E02119606
:1011CE007F8C1211228F117F881211228F127F862F
:1011DE001211228F137F841211228F147F8212110B
:1011EE00228F157F80121122EF547FF5167F8A12FF
:0511FE0011228F1722F1
:100A0600E51AFB7A00753801753910E4FDFF120E00
:100A1600D5E51BFB7A00753801753910E4FD7F08B2
:100A2600120ED5E51CFB7A00753801753910E4FD08
:100A36007F10120ED5E51DFB7A0075380175391049
:100A4600E4FD7F18120ED57B2FE4FD7F20120F499F
:100A5600E51EFB7A00753801753910E4FD7F281212
:100A66000ED5E51FFB7A00753801753910E4FD7F58
:100A760030120ED57B2FE4FD7F38120F49E520FB9F
:100A86007A00753801753910E4FD7F40120ED5E500
:100A960021FB7A00753801753910E4FD7F48120E86
:100AA600D57B05E4FD7F5A1210A2E528FB7A007576
:100AB6003801753910E4FD7F6A120ED57B037D027D
:100AC6007F0D1210A27B047D027F1F1210A2E52269
:100AD600FB7A007538017539107D027F2F120ED50D
:100AE600E523FB7A007538017539107D027F3712D0
:100AF6000ED57B3A7D027F3F120F49E524FB7A0033
:100B06007538017539107D027F47120ED5E525FB34
:100B16007A007538017539107D027F4F120ED57B2C
:100B26003A7D027F57120F49E526FB7A0075380198
:100B36007539107D027F5F120ED5E527FB7A0075A9
:0C0B460038017539107D027F67020ED562
:100D3600E4FB7D04FF1210A27B017D047F101210DC
:100D4600A27B3A7D047F20120F49E50975F00A84DB
:100D5600FB7A007538017539107D047F28120ED58F
:100D6600E50975F00A84E5F0FB7A007538017539F6
:100D7600107D047F30120ED57B027D06E4FF121033
:100D8600A27B017D067F101210A27B3A7D067F2092
:100D9600120F49E50A75F00A84FB7A007538017569
:100DA60039107D067F28120ED5E50A75F00A84E50E
:100DB600F0FB7A007538017539107D067F30020E1A
:010DC600D557
:10124F00E4FD30B6FD121384121387E4FE30B601AD
:10125F000E20B6FDE50F25E0F50FEE420F0DBD0890
:03126F00E1AF0FDD
:011272002259
:10131D00D2B6121387C2B67F19121343D2B6121367
:04132D00840213879C
:10105E0012131DD2B620B63B30B6FD20B6FD1212CD
:10106E004FA90712124FAC0712124FAB0712124FB5
:10107E00AA0712124FAE07C2B6E4FD1213870DBDBA
:10108E0007F9D2B6E92C2B2AB5060889098C0D8BE7
:03109E000A8A0EAD
:0110A100222C
:03002B00020C02C2
:100C0200C0E0C0D075D000C002C003C004C005C09F
:030C120006C00712
:100C1500C2CF0508E50864047072F50812138E7FCB
:100C25000AFE12000A1211CE120003E510C4540F79
:100C3500F51AE510540FF51BE511C4540FF51CE525
:100C450011540FF51DE512C4540FF51EE512540F8E
:100C5500F51FE513C4540FF520E513540FF521E5F1
:100C6500175407F528E514C4540FF522E514540F5D
:100C7500F523E515C4540FF524E515540FF525E5C1
:0C0C850016C4540FF526E516540FF52791
:100C9100D007D006D005D004D003D002D0D0D0E008
:010CA1003220
:0D13770075CB3C75CAADD2CAD2ADD2AF2243
:1012730020A11C12000620A113050CE50C70020529
:101283000B6408450B7005F50B750C0130A1FD22AD
:1012B30020A21812000620A20F1211CE7410250CC2
:0C12C300F80612000312101130A2FD22E8
:1012CF0020A31812000620A30F1211CE7410250CA4
:0C12DF00F81612000312101130A3FD22BB
:100E53007F327E0012000A12138E7F0A12000A12DA
:100E63001011121377120B521212731212B31212C1
:100E7300CF120A0620A00C7FF47E0112000A20A0E4
:100E830002C2A712105E120D367B667D047F4612E6
:100E93000F497B6C7D047F4E120F497B617D047F7C
:100EA30056120F497B677D047F5E120F4975380127
:100EB300753910AB0CAA0B7D067F3F120ED5E516D4
:100EC300FB7A007538027539107D067F50120ED5F6
:020ED300809607
:10002E000000000000000000002F0000000007008C
:10003E00070000147F147F1400242A7F2A12006206
:10004E0064081323003649552250000005030000B2
:10005E0000001C224100000041221C000014083E3A
:10006E0008140008083E0808000000A06000000800
:10007E000808080800006060000000201008040254
:10008E00003E5149453E0000427F40000042615112
:10009E004946002141454B31001814127F100027AC
:1000AE0045454539003C4A4949300001710905036F
:1000BE0000364949493600064949291E00003636A0
:1000CE000000000056360000000814224100001403
:1000DE0014141414000041221408000201510906E0
:1000EE0000324959513E007C1211127C007F494961
:1000FE004936003E41414122007F4141221C007F92
:10010E0049494941007F09090901003E4149497A9F
:10011E00007F0808087F0000417F41000020404119
:10012E003F01007F08142241007F40404040007F85
:10013E00020C027F007F0408107F003E4141413EC9
:10014E00007F09090906003E4151215E007F091911
:10015E0029460046494949310001017F0101003F0E
:10016E004040403F001F2040201F003F4038403F8E
:10017E0000631408146300070870080700615149F2
:10018E00454300007F41410000552A552A55000085
:10019E0041417F0000040201020400404040404003
:1001AE00000001020400002054545478007F48449B
:1001BE00443800384444442000384444487F0038D2
:1001CE005454541800087E0901020018A4A4A47CFB
:1001DE00007F080404780000447D400000408084C5
:1001EE007D00007F102844000000417F4000007C0D
:1001FE0004180478007C0804047800384444443819
:10020E0000FC242424180018242418FC007C080464
:10021E00040800485454542000043F444020003C3D
:10022E004040207C001C2040201C003C4030403CC4
:10023E00004428102844001CA0A0A07C0044645454
:10024E004C44141414141414000000000000000098
:10025E000000000000000000000000F80000000098
:10026E00000000333000000000100C06100C0600D9
:10027E00000000000000000040C07840C078400040
:10028E00043F04043F040400007088FC08300000A2
:10029E00001820FF211E0000F008F000E0180000FA
:1002AE0000211C031E211E0000F0088870000000B3
:1002BE001E2123241927211010160E000000000005
:1002CE000000000000000000000000E01804020022
:1002DE00000000071820400000020418E000000093
:1002EE000040201807000000404080F08040400091
:1002FE000202010F01020200000000F000000000E7
:10030E000101011F010101000000000000000000BA
:10031E0080B070000000000000000000000000002F
:10032E0000010101010101010000000000000000B8
:10033E000030300000000000000000008060180453
:10034E00006018060100000000E010080810E00030
:10035E00000F102020100F00001010F800000000F9
:10036E000020203F20200000007008080888700040
:10037E0000302824222130000030088888483000C0
:10038E000018202020110E000000C02010F80000E0
:10039E0000070424243F240000F808888808080079
:1003AE000019212020110E0000E01088881800008E
:1003BE00000F112020110E0000380808C838080060
:1003CE000000003F000000000070880808887000E0
:1003DE00001C222121221C0000E010080810E00061
:1003EE000000312222110F00000000C0C0000000EA
:1003FE00000000303000000000000080000000000F
:10040E000000806000000000000080402010080006
:10041E0000010204081020004040404040404000CF
:10042E0004040404040404000008102040800000AA
:10043E000020100804020100007048080808F000AF
:10044E000000003036010000C030C828E810E0007F
:10045E000718272423140B000000C038E00000000A
:10046E00203C23020227382008F888888870000074
:10047E00203F202020110E00C03008080808380048
:10048E00071820202010080008F808080810E000BF
:10049E00203F202020100F0008F88888E808100060
:1004AE00203F20202320180008F88888E808100034
:1004BE00203F200003000000C0300808083800006C
:1004CE0007182020221E020008F808000008F8086D
:1004DE00203F210101213F20000808F808080000F4
:1004EE000020203F2020000000000808F808080027
:1004FE00C08080807F00000008F888C0281808009F
:10050E00203F20012638200008F8080000000000D7
:10051E00203F20202020300008F8F800F8F80800CE
:10052E00203F003F003F200008F830C00008F808C8
:10053E00203F200007183F00E01008080810E000D8
:10054E000F10202020100F0008F808080808F000EF
:10055E00203F210101010000E01008080810E00012
:10056E000F18242438504F0008F8888888887000A7
:10057E00203F2000030C3020007088080808380047
:10058E000038202121221C00180808F8080818003D
:10059E000000203F2000000008F808000008F808BE
:1005AE00001F202020201F000878880000C838086F
:1005BE00000007380E010000F80800F80008F800E7
:1005CE00033C0700073C0300081868808068180881
:1005DE0020302C03032C30200838C800C8380800FF
:1005EE000000203F2000000010080808C83808004E
:1005FE002038262120201800000000FE02020200F2
:10060E000000007F40404000000C30C000000000A1
:10061E00000000010638C00000020202FE000000C9
:10062E00004040407F00000000000402020204006F
:10063E0000000000000000000000000000000000AC
:10064E008080808080808080000202040000000094
:10065E00000000000000000000008080808000008C
:10066E000019242222223F2008F80080800000007A
:10067E00003F112020110E0000000080808000003D
:10068E00000E112020201100000000808088F8004C
:10069E00000E112020103F2000008080808000007E
:1006AE00001F222222221300008080F088888818E2
:1006BE000020203F202000000000808080808000ED
:1006CE00006B94949493600008F800808080000082
:1006DE00203F210000203F2000809898000000005D
:1006EE000020203F2020000000000080989800008D
:1006FE0000C08080807F000008F8000080808000AD
:10070E00203F24022D302000000808F800000000D1
:10071E000020203F2020000080808080808080008C
:10072E00203F20003F20003F80800080808000001E
:10073E00203F210000203F200000808080800000AC
:10074E00001F202020201F008080008080000000DD
:10075E0080FFA12020110E0000000080808080000C
:10076E00000E112020A0FF808080800080808000FD
:10077E0020203F212000010000008080808080002A
:10078E000033242424241900008080E0808000009F
:10079E000000001F202000008080000000808000EC
:1007AE00001F202020103F2080808000008080804D
:1007BE0000010E30080601008080008000808080DD
:1007CE000F300C030C300F00008080008080800002
:1007DE000020312E0E31200080808000008080802D
:1007EE0080818E70180601000080808080808000DD
:1007FE000021302C2221300000000000807C0202FB
:10080E0000000000003F404000000000FF0000001C
:10081E0000000000FF0000000002027C80000000CB
:10082E000040403F000000000006010102020404E7
:10083E0000000000000000001060028C0000FE921C
:10084E0092929292FE000000000000000000000054
:10085E00000000000000000004047E01407E4242C1
:10086E007E427E42427E40000000000000000000FA
:10087E0000000000000000000000FC242424FC25E1
:10088E002624FC24242404000000000000000000A4
:10089E00000000000000000040308F80844C552581
:1008AE002525554C808080000000000000000000CF
:1008BE0000000000000000001060028C00FE92920A
:1008CE0092929292FE0000000000000000000000D4
:1008DE00000000000000000004047E014448507F28
:1008EE0040407F50484440000000000000000000DF
:1008FE00000000000000000000FC848484FC001056
:10090E0010101010FF10100000000000000000007A
:10091E000000000000000000003F1010103F00001B
:10092E00010640807F000000000000000000000073
:10093E00000000000000000000F8010600F0121296
:10094E0012F2020202FE0000000000000000000091
:10095E00000000000000000000FF0000001F111149
:10096E00111F0040807F000000000000000000000A
:10097E0000000000000000000000FE82929292FE35
:10098E0092929282FE000000000000000000000023
:10099E00000000000000000080601F00001E121208
:1009AE00121E40807F0000000000000000000000CA
:1009BE000000000000000000101010FF10900888CA
:1009CE008888FF888888080000000000000000006A
:1009DE0000000000000000000444827F018080407F
:1009EE00432C10284681800000000000000000000B
:0809FE000000000000000000F1
:1012EB00EF4E60157D507C00ED1DAA0470011C4A69
:0912FB0070F6EF1F70EA1E80E797
:0113040022C6
:10115D00F583E5822CF582E43583F583E493FF7DF9
:01116D000180
:10116E00ED6004D2818002C281C280E4FEC284EFAF
:10117E0030E704D2838002C283D284EF25E0FF0ED3
:07118E00BE08EAD280D28105
:011195002237
:10129300AC07ED24B0FFE4FD12116EEC54F0C4541E
:1012A3000F4410FF12116EEC540F4401FF02116E34
:10135500E4FD7F8D12116E7F1412116E7FAF0211A5
:011365006E19
:10136600E4FD7F8D12116E7F1012116E7FAE021199
:011376006E08
:10120300E4FCEC24B0FFE4FD12116EE4FF12116E56
:101213007F1012116EE4FB7D01E4FF12116E0BBB14
:0612230080F50CBC08DCA4
:0112290022A2
:060F4900AA07A905AF0391
:100F4F00E4FCEF24E0FBEAD3947F4004E4FA0909C0
:100F5F00AF02AD01121293E4FC75F010EBA42CF567
:100F6F0082E435F0F583E5822456F582E583340279
:100F7F001211670CBC08E2AF02E904FD121293E4F0
:100F8F00FC75F010EBA42CF582E435F0F583E582C7
:100F9F00245EF582E58334021211670CBC08E2224D
:041305008F3DA9056A
:101309007F017E00AD0119ED6009AD3D7C00120C35
:03131900CF80F191
:01131C0022AE
:080ED5008F348D358A368B370E
:100EDD00E4F53CF53AE53AC39538505FC3E53895EE
:100EED003A14FD7F0A121305AC36AD37CFCDCFCEF8
:100EFD00CCCE120CE17C007D0A120CE18D3BE53C61
:100F0D007020E53814FFE53AC39F5016E53B700F8E
:100F1D00E539C313853AF0A42534FF7B2080137582
:100F2D003C01E539C313853AF0A42534FFE53B2494
:0B0F3D0030FBAD35120F49053A809AD9
:010F48002286
:0A10E5008F3E8D3F8B408A41894207
:1010EF00E4F543AB40AA41A94285438275830012C0
:1010FF000CA2FB601DAD3FAF3E120F497408253E99
:10110F00F53ED394784007E4F53E053F053F054390
:02111F0080D17D
:0111210022AB
:0410A200AA07A905EB
:1010A600E4F534121293E4FC75F040EBA42446F503
:1010B60082E5F0340812115D05340CBC10EAAF026B
:1010C600E904FD121293E4FC75F040EBA42466F5E6
:0E10D60082E5F0340812115D05340CBC10EAFE
:0110E40022E9
:040FAF008F2A8B2CCE
:100FB300E4F531F532E52D5407700BE52D131313CA
:100FC300541FF533800AE52D131313541F04F5330F
:100FD3008D33E533C3952D5034AD33AF2A121293BD
:100FE300AC2AECC3952C5021AB2EAA2FA930053285
:100FF300E532AE317002053114F5828E83120CA2F4
:0D100300FF7D0112116E0C80D9053380C5F0
:0110100022BD
:100B5200D2827F647E001212EBC2827F647E001218
:100B620012EBD282E4FD7FAE12116EE4FF12116E1F
:100B72007F1012116E7F4012116E7F8112116E7FF3
:100B8200CF12116E7FA112116E7FC812116E7FA655
:100B920012116E7FA812116E7F3F12116E7FD31257
:100BA200116EE4FF12116E7FD512116E7F80121149
:100BB2006E7FD912116E7FF112116E7FDA12116EF1
:100BC2007F1212116E7FDB12116E7F4012116E7F47
:100BD2002012116E7F0212116E7F8D12116E7F1420
:100BE20012116E7FA412116E7FA612116E7FAF12C8
:100BF200116E7FAF12116E121203E4FDFF02129307
:03000000020DC727
:0C0DC700787FE4F6D8FD758143020E0E23
:100CA200BB010CE58229F582E5833AF583E0225007
:100CB20006E92582F8E622BBFE06E92582F8E22251
:0D0CC200E58229F582E5833AF583E493226B
:100CCF00EF8DF0A4A8F0CF8CF0A428CE8DF0A42E39
:020CDF00FE22F3
:100CE100BC000BBE0029EF8DF084FFADF022E4CCF7
:100CF100F875F008EF2FFFEE33FEEC33FCEE9DECC0
:100D0100984005FCEE9DFE0FD5F0E9E4CEFD22ED05
:100D1100F8F5F0EE8420D21CFEADF075F008EF2F4F
:100D2100FFED33FD4007985006D5F0F222C398FD40
:050D31000FD5F0EA22DD
:100DD300020E53E493A3F8E493A34003F68001F2D5
:100DE30008DFF48029E493A3F85407240CC8C33321
:100DF300C4540F4420C8834004F456800146F6DFF0
:100E0300E4800B010204081020408090122AE47E43
:100E1300019360BCA3FF543F30E509541FFEE493E4
:100E2300A360010ECF54C025E060A840B8E493A3AB
:100E3300FAE493A3F8E493A3C8C582C8CAC583CAD6
:100E4300F0A3C8C582C8CAC583CADFE9DEE780BE8E
:01124E00009F
:00000001FF
