:030000000210C229
:0C10C200787FE4F6D8FD75815D0211090D
:10135E00103400000000000000000000000000003B
:10136E000000101700000000000000000000000048
:10137E00000000000213000502280001082A2022A6
:10138E00051118340003080920220505093005054A
:070003001216757F0A7E0052
:10000A00E4FDFCC3ED9FEC9E5015E4FBFA0BBB002C
:0F001A00010AEB64704A70F50DBD00010C80E423
:0100290022B4
:10160400D3EF9400EE9400400800EF1F70F21E80A8
:02161400EF22C3
:06165B0012166112166177
:06166100E4FF0FBF01FCD5
:011667002260
:10161600AD071FED600BE4FEEEC3946450F20E803E
:01162600F7CC
:0116270022A0
:10162800EFC4540FFEEF540FFDEE75F00AA42DFF22
:01163800228F
:05167500C293C29122A6
:10145000D2935307FEE4FEEF30E004D2928002C242
:1014600092D291C291EFC313FF0EBE08EAE4FEEDE3
:1014700030E004D2928002C292D291C291EDC313A5
:07148000FD0EBE08EAC29355
:011487002242
:1013DC00D293430701E4FDEF30E004D2928002C2C5
:1013EC0092D291C291EFC313FF0DBD08EAE4FDEE5A
:1013FC00C313FE309205430680800353067FD291BF
:0A140C00C2910DBD08E9C293AF06BE
:0114160022B3
:10128A00E4FD7F8E1214507D807F801214507DA958
:10129A007F90121450AD2B7F8C121450AD2C7F8886
:1012AA00121450AD2D7F86121450AD2E7F84121465
:1012BA0050AD2F7F82121450AD307F80121450AD82
:0D12CA00317F8A1214507D807F8E021450F7
:101488007F8C1213DC8F2B7F881213DC8F2C7F86C6
:101498001213DC8F2D7F841213DC8F2E7F821213A0
:1014A800DC8F2F7F801213DCEF547FF5307F8A1298
:0514B80013DC8F31225E
:0D16680075CB3C75CAB5D2CAD2ADD2AF2247
:03002B00020CDEE6
:100CDE00C0E0C0F0C083C082C0D075D000C000C0DC
:0D0CEE0001C002C003C004C005C006C0075D
:100CFB00C2CF0508E50864046003020DD5F50812A0
:100D0B0014881200061212D7E52AC4540FF534E5E5
:100D1B002A540FF535E52BC4540FF536E52B540F3C
:100D2B00F537E52CC4540FF538E52C540FF539E5A0
:100D3B002DC4540FF53AE52D540FF53BE53154070F
:100D4B00F542E52EC4540FF53CE52E540FF53DE569
:100D5B002FC4540FF53EE52F540FF53FE530C45427
:100D6B000FF540E530540FF541E509C4540FF51765
:100D7B00E509540FF518E50AC4540FF519E50A54A3
:100D8B000FF51AE50BC4540FF51BE50B540FF51CAF
:100D9B00E50CC4540FF51DE50C540FF51EE510546E
:100DAB0007F525E50DC4540FF51FE50D540FF52080
:100DBB00E50EC4540FF521E50E540FF522E50FC4D3
:0A0DCB00540FF523E50F540FF52433
:100DD500D007D006D005D004D003D002D001D00072
:0B0DE500D0D0D082D083D0F0D0E0321C
:100A4600E534FB7A00755201755310E4FDFF12116F
:100A56004EE535FB7A00755201755310E4FD7F08AB
:100A660012114EE536FB7A00755201755310E4FDFE
:100A76007F1012114EE537FB7A007552017553103F
:100A8600E4FD7F1812114E7B2FE4FD7F201211C268
:100A9600E538FB7A00755201755310E4FD7F281284
:100AA600114EE539FB7A00755201755310E4FD7F4E
:100AB6003012114E7B2FE4FD7F381211C2E53AFB4E
:100AC6007A00755201755310E4FD7F4012114EE510
:100AD6003BFB7A00755201755310E4FD7F481211F5
:100AE6004E7B05E4FD7F5A12131BE542FB7A007527
:100AF6005201755310E4FD7F6A12114E7B037D028D
:100B06007F0D12131B7B047D027F1F12131BE53C16
:100B1600FB7A007552017553107D027F2F12114E1C
:100B2600E53DFB7A007552017553107D027F371241
:100B3600114E7B3A7D027F3F1211C2E53EFB7A00E1
:100B46007552017553107D027F4712114EE53FFB2A
:100B56007A007552017553107D027F4F12114E7B3C
:100B66003A7D027F571211C2E540FB7A00755201A9
:100B76007553107D027F5F12114EE541FB7A0075B9
:0C0B860052017553107D027F6702114E72
:100B9200E517FB7A00755201755310E4FDFF12113F
:100BA2004EE518FB7A00755201755310E4FD7F087B
:100BB20012114EE519FB7A00755201755310E4FDCE
:100BC2007F1012114EE51AFB7A007552017553100F
:100BD200E4FD7F1812114E7B2FE4FD7F201211C21B
:100BE200E51BFB7A00755201755310E4FD7F281254
:100BF200114EE51CFB7A00755201755310E4FD7F1E
:100C02003012114E7B2FE4FD7F381211C2E51DFB1D
:100C12007A00755201755310E4FD7F4012114EE5C2
:100C22001EFB7A00755201755310E4FD7F481211C4
:100C32004E7B05E4FD7F5A12131BE525FB7A0075F6
:100C42005201755310E4FD7F6A12114E7B067D023C
:100C52007F0312131B7B077D027F1512131BE51FF7
:100C6200FB7A007552017553107D027F2F12114ECF
:100C7200E520FB7A007552017553107D027F371211
:100C8200114E7B3A7D027F3F1211C2E521FB7A00B1
:100C92007552017553107D027F4712114EE522FBFA
:100CA2007A007552017553107D027F4F12114E7BEF
:100CB2003A7D027F571211C2E523FB7A0075520179
:100CC2007553107D027F5F12114EE524FB7A007589
:0C0CD20052017553107D027F6702114E25
:101031007B027D04E4FF12131B7B017D047F1012F0
:10104100131B7B3A7D047F201211C2E51175F00A52
:1010510084FB7A007552017553107D047F281211AB
:101061004EE51175F00A84E5F0FB7A0075520175C1
:1010710053107D047F3012114EE4FB7D06FF1213E5
:101081001B7B017D067F1012131B7B3A7D067F209F
:101091001211C2E51275F00A84FB7A0075520175CE
:1010A10053107D067F2812114EE51275F00A84E572
:1010B100F0FB7A007552017553107D067F300211E5
:0110C1004EE0
:10153C00E4FD3087FD12165BE4FE3087010E208738
:10154C00FDE52725E0F527EE42270DBD08E4AF2782
:01155C00226C
:1015F000D287121661C2877F19121616D287121669
:041600005B02166112
:1012D7001215F0D28720873B3087FD2087FD121536
:1012E7003CA90712153CAC0712153CAB0712153C7D
:1012F700AA0712153CAE07C287E4FD1216610DBDA1
:1013070007F9D287E92C2B2AB5060889118C158B8A
:03131700128A1621
:01131A0022B0
:10157E0020A11C12000620A1130514E5147002050B
:10158E0013640845137005F51375140130A1FD227F
:09155D0012157E1214BD1214E9EE
:1015660020A41412000620A40BC3E49529F529E44F
:081576009528F52830A4FD22A0
:1014BD0020A22812000620A21FE5296401452870EC
:1014CD0011121488742A2514F80612000312128AB8
:0C14DD00800674092514F80630A2FD22D8
:1014E90020A32812000620A31FE5296401452870BE
:1014F90011121488742A2514F81612000312128A7C
:0C150900800674092514F81630A3FD229A
:100DF000C2977F327E0012000A1216757F0A120017
:100E00000A12128A121668120EEDD2A7D2A6121575
:100E10005D120A467B667D047F461211C27B6C7DA3
:100E2000047F4E1211C27B617D047F561211C27B7A
:100E3000677D047F5E1211C2755201755310AB14A9
:100E4000AA137D067F4E12114EE5296401452860E4
:100E5000501215157FE87E0312000A7B667D047F21
:100E6000461211C27B6C7D047F4E1211C27B617DE4
:100E7000047F561211C27B677D047F5E1211C2751A
:100E80005201755310AB14AA137D067F4E12114EFA
:100E9000120B9212155DE5296401452870BD1215EB
:100EA00015E52E650D702BE52FB50E26E530B50F37
:100EB00021C297C2A6753200753350E533453260C2
:100EC0000DE533153370021532120A4680EDD297C4
:100ED000D2A612103130A003020E0A7FF47E011256
:0D0EE000000A30A003020E0AC2A7020E0A8B
:10002E000000000000000000002F0000000007008C
:10003E00070000147F147F1400242A7F2A12006206
:10004E0064081323003649552250000005030000B2
:10005E0000001C224100000041221C000014083E3A
:10006E0008140008083E0808000000A06000000800
:10007E000808080800006060000000201008040254
:10008E00003E5149453E0000427F40000042615112
:10009E004946002141454B31001814127F100027AC
:1000AE0045454539003C4A4949300001710905036F
:1000BE0000364949493600064949291E00003636A0
:1000CE000000000056360000000814224100001403
:1000DE0014141414000041221408000201510906E0
:1000EE0000324959513E007C1211127C007F494961
:1000FE004936003E41414122007F4141221C007F92
:10010E0049494941007F09090901003E4149497A9F
:10011E00007F0808087F0000417F41000020404119
:10012E003F01007F08142241007F40404040007F85
:10013E00020C027F007F0408107F003E4141413EC9
:10014E00007F09090906003E4151215E007F091911
:10015E0029460046494949310001017F0101003F0E
:10016E004040403F001F2040201F003F4038403F8E
:10017E0000631408146300070870080700615149F2
:10018E00454300007F41410000552A552A55000085
:10019E0041417F0000040201020400404040404003
:1001AE00000001020400002054545478007F48449B
:1001BE00443800384444442000384444487F0038D2
:1001CE005454541800087E0901020018A4A4A47CFB
:1001DE00007F080404780000447D400000408084C5
:1001EE007D00007F102844000000417F4000007C0D
:1001FE0004180478007C0804047800384444443819
:10020E0000FC242424180018242418FC007C080464
:10021E00040800485454542000043F444020003C3D
:10022E004040207C001C2040201C003C4030403CC4
:10023E00004428102844001CA0A0A07C0044645454
:10024E004C44141414141414000000000000000098
:10025E000000000000000000000000F80000000098
:10026E00000000333000000000100C06100C0600D9
:10027E00000000000000000040C07840C078400040
:10028E00043F04043F040400007088FC08300000A2
:10029E00001820FF211E0000F008F000E0180000FA
:1002AE0000211C031E211E0000F0088870000000B3
:1002BE001E2123241927211010160E000000000005
:1002CE000000000000000000000000E01804020022
:1002DE00000000071820400000020418E000000093
:1002EE000040201807000000404080F08040400091
:1002FE000202010F01020200000000F000000000E7
:10030E000101011F010101000000000000000000BA
:10031E0080B070000000000000000000000000002F
:10032E0000010101010101010000000000000000B8
:10033E000030300000000000000000008060180453
:10034E00006018060100000000E010080810E00030
:10035E00000F102020100F00001010F800000000F9
:10036E000020203F20200000007008080888700040
:10037E0000302824222130000030088888483000C0
:10038E000018202020110E000000C02010F80000E0
:10039E0000070424243F240000F808888808080079
:1003AE000019212020110E0000E01088881800008E
:1003BE00000F112020110E0000380808C838080060
:1003CE000000003F000000000070880808887000E0
:1003DE00001C222121221C0000E010080810E00061
:1003EE000000312222110F00000000C0C0000000EA
:1003FE00000000303000000000000080000000000F
:10040E000000806000000000000080402010080006
:10041E0000010204081020004040404040404000CF
:10042E0004040404040404000008102040800000AA
:10043E000020100804020100007048080808F000AF
:10044E000000003036010000C030C828E810E0007F
:10045E000718272423140B000000C038E00000000A
:10046E00203C23020227382008F888888870000074
:10047E00203F202020110E00C03008080808380048
:10048E00071820202010080008F808080810E000BF
:10049E00203F202020100F0008F88888E808100060
:1004AE00203F20202320180008F88888E808100034
:1004BE00203F200003000000C0300808083800006C
:1004CE0007182020221E020008F808000008F8086D
:1004DE00203F210101213F20000808F808080000F4
:1004EE000020203F2020000000000808F808080027
:1004FE00C08080807F00000008F888C0281808009F
:10050E00203F20012638200008F8080000000000D7
:10051E00203F20202020300008F8F800F8F80800CE
:10052E00203F003F003F200008F830C00008F808C8
:10053E00203F200007183F00E01008080810E000D8
:10054E000F10202020100F0008F808080808F000EF
:10055E00203F210101010000E01008080810E00012
:10056E000F18242438504F0008F8888888887000A7
:10057E00203F2000030C3020007088080808380047
:10058E000038202121221C00180808F8080818003D
:10059E000000203F2000000008F808000008F808BE
:1005AE00001F202020201F000878880000C838086F
:1005BE00000007380E010000F80800F80008F800E7
:1005CE00033C0700073C0300081868808068180881
:1005DE0020302C03032C30200838C800C8380800FF
:1005EE000000203F2000000010080808C83808004E
:1005FE002038262120201800000000FE02020200F2
:10060E000000007F40404000000C30C000000000A1
:10061E00000000010638C00000020202FE000000C9
:10062E00004040407F00000000000402020204006F
:10063E0000000000000000000000000000000000AC
:10064E008080808080808080000202040000000094
:10065E00000000000000000000008080808000008C
:10066E000019242222223F2008F80080800000007A
:10067E00003F112020110E0000000080808000003D
:10068E00000E112020201100000000808088F8004C
:10069E00000E112020103F2000008080808000007E
:1006AE00001F222222221300008080F088888818E2
:1006BE000020203F202000000000808080808000ED
:1006CE00006B94949493600008F800808080000082
:1006DE00203F210000203F2000809898000000005D
:1006EE000020203F2020000000000080989800008D
:1006FE0000C08080807F000008F8000080808000AD
:10070E00203F24022D302000000808F800000000D1
:10071E000020203F2020000080808080808080008C
:10072E00203F20003F20003F80800080808000001E
:10073E00203F210000203F200000808080800000AC
:10074E00001F202020201F008080008080000000DD
:10075E0080FFA12020110E0000000080808080000C
:10076E00000E112020A0FF808080800080808000FD
:10077E0020203F212000010000008080808080002A
:10078E000033242424241900008080E0808000009F
:10079E000000001F202000008080000000808000EC
:1007AE00001F202020103F2080808000008080804D
:1007BE0000010E30080601008080008000808080DD
:1007CE000F300C030C300F00008080008080800002
:1007DE000020312E0E31200080808000008080802D
:1007EE0080818E70180601000080808080808000DD
:1007FE000021302C2221300000000000807C0202FB
:10080E0000000000003F404000000000FF0000001C
:10081E0000000000FF0000000002027C80000000CB
:10082E000040403F000000000006010102020404E7
:10083E0000000000000000001060028C0000FE921C
:10084E0092929292FE000000000000000000000054
:10085E00000000000000000004047E01407E4242C1
:10086E007E427E42427E40000000000000000000FA
:10087E0000000000000000000000FC242424FC25E1
:10088E002624FC24242404000000000000000000A4
:10089E00000000000000000040308F80844C552581
:1008AE002525554C808080000000000000000000CF
:1008BE0000000000000000001060028C00FE92920A
:1008CE0092929292FE0000000000000000000000D4
:1008DE00000000000000000004047E014448507F28
:1008EE0040407F50484440000000000000000000DF
:1008FE00000000000000000000FC848484FC001056
:10090E0010101010FF10100000000000000000007A
:10091E000000000000000000003F1010103F00001B
:10092E00010640807F000000000000000000000073
:10093E00000000000000000000F8010600F0121296
:10094E0012F2020202FE0000000000000000000091
:10095E00000000000000000000FF0000001F111149
:10096E00111F0040807F000000000000000000000A
:10097E0000000000000000000000FE82929292FE35
:10098E0092929282FE000000000000000000000023
:10099E00000000000000000080601F00001E121208
:1009AE00121E40807F0000000000000000000000CA
:1009BE00000000000000000000F8012220222AF2B0
:1009CE002222222202FE0000000000000000000091
:1009DE00000000000000000000FF00001F01017F6A
:1009EE0009110F40807F0000000000000000000091
:1009FE00000000000000000020102CE7242400F06E
:100A0E001010FF1010F000000000000000000000A9
:100A1E0000000000000000000101017F211100070D
:100A2E000202FF02020700000000000000000000AA
:080A3E000000000000000000B0
:1015BE00EF4E60157D507C00ED1DAA0470011C4A93
:0915CE0070F6EF1F70EA1E80E7C1
:0115D70022F1
:10141700F583E5822CF582E43583F583E493FF7D3C
:0114270001C3
:10142800ED6004D2818002C281C280E4FEC284EFF2
:1014380030E704D2838002C283D284EF25E0FF0E16
:07144800BE08EAD280D28148
:01144F00227A
:10159E00AC07ED24B0FFE4FD121428EC54F0C45453
:1015AE000F4410FF121428EC540F4401FF021428AC
:10163900E4FD7F8D1214287F141214287FAF021441
:011649002878
:10164A00E4FD7F8D1214287F101214287FAE021435
:01165A002867
:10151500E4FCEC24B0FFE4FD121428E4FF121428C7
:101525007F10121428E4FB7D01E4FF1214280BBB85
:0615350080F50CBC08DC8F
:01153B00228D
:0611C200AA07A905AF0316
:1011C800E4FCEF24E0FBEAD3947F4004E4FA090945
:1011D800AF02AD0112159EE4FC75F010EBA42CF5DE
:1011E80082E435F0F583E5822456F582E5833402FE
:1011F8001214210CBC08E2AF02E904FD12159EE4AA
:10120800FC75F010EBA42CF582E435F0F583E5824B
:10121800245EF582E58334021214210CBC08E22214
:0415D8008F57A9057B
:1015DC007F017E00AD0119ED6009AD577C00120F43
:0315EC00CA80F1C1
:0115EF0022D9
:08114E008F4E8D4F8A508B512A
:10115600E4F556F554E554C39552505FC3E55295F0
:101166005414FD7F0A1215D8AC50AD51CFCDCFCE59
:10117600CCCE120FDC7C007D0A120FDC8D55E556B5
:101186007020E55214FFE554C39F5016E555700FC5
:10119600E553C3138554F0A4254EFF7B20801375B9
:1011A6005601E553C3138554F0A4254EFFE5552497
:0B11B60030FBAD4F1211C20554809AAF
:0111C100220B
:0A139F008F588D598B5A8A5B895CC8
:1013A900E4F55DAB5AAA5BA95C855D827583001281
:1013B9000F9DFB601DAD59AF581211C27408255815
:1013C900F558D394784007E4F55805590559055D52
:0213D90080D1C1
:0113DB0022EF
:04131B00AA07A9056F
:10131F00E4F54E12159EE4FC75F040EBA42446F55F
:10132F0082E5F03408121417054E0CBC10EAAF0218
:10133F00E904FD12159EE4FC75F040EBA42466F55C
:0E134F0082E5F03408121417054E0CBC10EAAB
:01135D00226D
:041228008F448B461E
:10122C00E4F54BF54CE5475407700BE547131313E6
:10123C00541FF54D800AE547131313541F04F54D45
:10124C008D4DE54DC395475034AD4DAF4412159EB1
:10125C00AC44ECC395465021AB48AA49A94A054C6D
:10126C00E54CAE4B7002054B14F5828E83120F9D2C
:0D127C00FF7D011214280C80D9054D80C59E
:011289002242
:100EED00D2827F647E001215BEC2827F647E0012A4
:100EFD0015BED282E4FD7FAE121428E4FF12142831
:100F0D007F101214287F401214287F811214287F1D
:100F1D00CF1214287FA11214287FC81214287FA67F
:100F2D001214287FA81214287F3F1214287FD31281
:100F3D001428E4FF1214287FD51214287F80121470
:100F4D00287FD91214287FF11214287FDA12142861
:100F5D007F121214287FDB1214287F401214287F71
:100F6D00201214287F021214287F8D1214287F144A
:100F7D001214287FA41214287FA61214287FAF12F2
:100F8D0014287FAF121428121515E4FDFF02159ECB
:1010CE00020DF0E493A3F8E493A34003F68001F23B
:1010DE0008DFF48029E493A3F85407240CC8C33323
:1010EE00C4540F4420C8834004F456800146F6DFF2
:1010FE00E4800B010204081020408090135EE47E11
:10110E00019360BCA3FF543F30E509541FFEE493E6
:10111E00A360010ECF54C025E060A840B8E493A3AD
:10112E00FAE493A3F8E493A3C8C582C8CAC583CAD8
:10113E00F0A3C8C582C8CAC583CADFE9DEE780BE90
:01139E00004E
:100F9D00BB010CE58229F582E5833AF583E0225009
:100FAD0006E92582F8E622BBFE06E92582F8E22253
:0D0FBD00E58229F582E5833AF583E493226D
:100FCA00EF8DF0A4A8F0CF8CF0A428CE8DF0A42E3B
:020FDA00FE22F5
:100FDC00BC000BBE0029EF8DF084FFADF022E4CCF9
:100FEC00F875F008EF2FFFEE33FEEC33FCEE9DECC2
:100FFC00984005FCEE9DFE0FD5F0E9E4CEFD22ED08
:10100C00F8F5F0EE8420D21CFEADF075F008EF2F51
:10101C00FFED33FD4007985006D5F0F222C398FD42
:05102C000FD5F0EA22DF
:00000001FF
