:0300000002019D5D
:0C019D00787FE4F6D8FD75812002000395
:10017A00AD071FED600BE4FEEEC3946450F20E80EF
:01018A00F77D
:01018B002251
:0601A900E4FF0FBF01FCA2
:0101AF00222D
:1001120000000000000000000000000000000000DD
:0C012200000000000000000000000022AF
:10016600C2A5D2A6D2A700000000E580339200C245
:03017600A7A2003D
:010179002263
:10012E0012016640FBC2A5C2A6C2A700008F8000C6
:0C013E00000000D2A700000000C2A722B1
:0701B000EF4480FF02012E65
:10014A0012016640FBD2A5C2A6C2A700008F80009A
:0C015A00000000D2A700000000C2A72295
:1000AA007F3812012E7F0112017A7F0C12012E7FF6
:1000BA000112017A7F0612012E7F0112017A7F0155
:0600CA0012012E02017A72
:0900D00075F00A84E5F02430FD0E
:1000D900AC05AB077F0A12017AAF031201B0AF0476
:0800E90012014A7F0102017AB5
:10018C00D2901201A9C2907F1912017AD290020169
:01019C001250
:1000F100E4FF3090FD120112E4FE3090010E2090D9
:10010100FDE50C25E0F50CEE420C0FBF08E4AF0C49
:0101110022CB
:1000660012018CD29020903B3090FD2090FD120022
:10007600F1A9071200F1AD071200F1AC071200F169
:10008600AB071200F1AE07C290E4FA1201A90ABA50
:1000960007F9D290E92D2C2BB5060889088D0A8C14
:0300A600098B0BB8
:0100A9002234
:100003001200AA1200667D52E4FF1200D97D3A7FE6
:10001300011200D9E50875F00A842430FD7F02122D
:1000230000D9E5087F031200D07D257F041200D993
:100033007D547F401200D97D3A7F411200D9E509F2
:1000430075F00A842430FD7F421200D9E5097F430D
:100053001200D07DDF7F441200D97D437F4512001B
:03006300D980A0A1
:00000001FF
