:030000000206A64F
:0C06A600787FE4F6D8FD75814102035F07
:1005920048756D693A0054656D703A002564002E05
:1005A200002500430048756D693A25642E256420B4
:1005B2000A0054656D703A25642E256420A1E34338
:0205C2000A002D
:0306C600DFFE2232
:10060E00D3EF9400EE940040147D6E7C00ED1D70CF
:0D061E00011CED4C70F70FBF00010E80E3D2
:01062B0022AC
:10067300759840D29C758920758DF3758BF3D2994B
:03068300D28E22F2
:10064800D2B67F1E1206C6C2B67F147E0012060EF0
:07065800D2B67F1E0206C6A8
:10062C00E4FD30B6FD7F1E1206C6EE25E0FE30B6A8
:0B063C00010E20B6FD0DBD08E9AF0661
:010647002290
:10051300120648D2B620B65E30B6FD20B6FD1206EE
:100523002C7508008F0912062C750A008F0B120612
:100533002C750C008F0D12062CAB077A0012062CBB
:100543008F11C2B67F191206C6D2B6E509250BFF75
:10055300E508350AFEE50D2FCFE50C3ECF2BCF3A4C
:10056300FE7C00EFB5110FECB5060B85090E850B6C
:100573000F850D10A903753400850E35753600857A
:0E0583000F37753800851039E9753A00F53BE1
:010591002247
:10035F0012067312065F7BFF7A0579927D017F018A
:10036F001205EB7BFF7A0579987D017F021205EB71
:10037F007FE87E0312060E120513750BFF750C0531
:10038F00750D9E85340E85350F7B007A00793C12F2
:10039F00005F750BFF750C05750D9E85360E853745
:1003AF000F7B007A00792212005F750BFF750C0529
:1003BF00750D9E85380E85390F7B007A00792812CE
:1003CF00005F750BFF750C05750D9E853A0E853B0D
:1003DF000F7B007A00792E12005F7F647E00120679
:1003EF000E7B007A00793C7D067F011205EB7BFFC7
:1003FF007A0579A17D087F011205EB7B007A0079E0
:10040F00227D097F011205EB7BFF7A0579A37D0F12
:10041F007F011205EB7B007A0079287D067F02129F
:10042F0005EB7BFF7A0579A17D087F021205EB7B37
:10043F00007A00792E7D097F021205EB7BFF7A058A
:10044F0079A57D0F7F021205EB7BFF7A0579A785D2
:10045F00340B85350C85360D85370E1200657BFF05
:10046F007A0579B485380B85390C853A0D853B0EA5
:06047F0012006502037F7C
:06068600C2A58F80D2A77F
:09068C00007F027EC7DEFEDFFCE8
:010695002242
:0A06B200C2A6120686C2A702068C3B
:0A06BC00D2A6120686C2A702068C21
:10065F007F381206B27F0C1206B27F061206B27FE7
:04066F00010206B2CC
:10069600EDBF0103148002243F4480FF1206B222FC
:0605EB008B088A09890A51
:1005F100E4FC120696AB08AA09A90A8C827583004D
:0C060100120485FF60061206BC0C80E9A4
:01060D0022CA
:10048500BB010CE58229F582E5833AF583E022502C
:1004950006E92582F8E622BBFE06E92582F8E22276
:0D04A500E58229F582E5833AF583E4932290
:10000300E517240BF8E60517227808300702780B6A
:10001300E475F0011204DD0204B22000EB7F2ED25E
:10002300008018EF540F2490D43440D4FF30040BD5
:10003300EF24BFB41A0050032461FFE518600215D2
:1000430018051BE51B7002051A30070D7808E475C7
:10005300F0011204DDEF0204CB0205C47403D207DE
:100063008003E4C207F5178B088A09890AE4F518A7
:10007300F51AF51BE51860077F2012003E80F57521
:1000830019FFC201C200C202C203C205C206C208EE
:1000930012000CFF700D3007057F0012004FAF1BDD
:1000A300AE1A22B4255FC2D5C20412000CFF24D0BD
:1000B300B40A00501A75F00A781830D50508B6FF4F
:1000C3000106C6A426F620D5047002D20380D924E3
:1000D300CFB41A00EF5004C2E5D20402024FD2019A
:1000E30080C6D20080C0D20280BCD2D580BAD205ED
:1000F30080B47F2012003E2002077401B51800402F
:10010300F1120003FF12003E020077D208D20680EC
:1001130095120003FB120003FA120003F94A4B7015
:100123000679207A037BFF20022EE518602A7E00E1
:100133008E8275830012048560060EEE651970F0D9
:10014300C2D5EBC0E0EAC0E0E9C0E0EE120296D00F
:10015300E0F9D0E0FAD0E0FB1204B2FF60AAEBC0F2
:10016300E0EAC0E0E9C0E012003ED0E02401F9D0AB
:10017300E03400FAD0E0FBE5190460DCD519D9803E
:10018300877BFF7A027992D202809C791080027970
:1001930008C206C2088008D2D5790A8004790AC247
:1001A300D5E519047002F519E4FAFDFEFF12000308
:1001B300FC7B08200113120003FD7B1030000A12A0
:1001C3000003FE120003FF7B20EC3382D592D5504F
:1001D30013C3E43000069FFFE49EFEE42001039D69
:1001E300FDE49CFCE4CBF8C201EC700CCFCECDCC8B
:1001F300E824F8F870F38017C3EF33FFEE33FEED16
:1002030033FDEC33FCEB33FB994002FB0FD8E9EBF6
:10021300300105F8D0E0C448B201C0E00AEC4D4E0D
:100223004F78207B0070C2EAB5190040BCC0E012D1
:100233000298D0F0D0E0200104C4C0E0C4B201C0F1
:10024300F0120027D0F0D5F0EB0200771204ED0195
:100253001453018E5800E54C00E14201924F019A7C
:0F02630044019A4900FA4301A0550184460184E1
:100272004501844703405000E92D00ED2E01102B6B
:1002820000F123010E2003292A00A94800000108D9
:100292003F3F3F00790AA2D5200314300509B91067
:1002A200020404B9080104A2D52006025001042068
:1002B20002689202B518005034C0E07F2030031962
:1002C2007F30A20272067205500F1202EFC202C202
:1002D20006C205C2087F30800F300503E9C0E01274
:1002E200003E300503D0E0F9D0E0B518CC30051758
:1002F2007F30B9100C12003E7F583004077F78809F
:1003020003B9080312003E3002057F2D02003E7F32
:10031200202008F87F2B2006F322920280CF286E3D
:10032200756C6C2900D2011200033001F8C2017809
:100332001830D50108F60200A92D50434958120081
:10034200032403B405004001E490033B9312002F01
:0D035200743A12002FD20375180402018EB8
:1004B200BB010689828A83E0225002E722BBFE0248
:0904C200E32289828A83E493227B
:1004CB00BB010689828A83F0225002F722BBFE0110
:0204DB00F3220A
:1004DD00FAE6FB0808E6F925F0F618E6CA3AF62220
:1004ED00D083D082F8E4937012740193700DA3A39E
:1004FD0093F8740193F5828883E4737402936860B2
:06050D00EFA3A3A380DFB1
:1005C400EFB40A07740D1205CF740A309811A89974
:1005D400B8130CC2983098FDA899C298B811F63097
:0705E40099FDC299F599226F
:00000001FF
