:03000000020003F8
:0C000300787FE4F6D8FD75814E02004ABB
:10023800073AC4EAD4C2C8D5000741CAB1B7D6C381
:10024800EB000548D0C7C6DA000E21D2BBB6FEC8FF
:10025800CBC4CEE5C1F9C8D5000B2F3031323334C9
:060268003536373839007D
:0402F2007F057E0006
:1002F600D3EF9400EE940040147D6E7C00ED1D70EB
:0D030600011CED4C70F7EF1F70E61E80E348
:0103130022C7
:05031400F8E6FFD20035
:10031900C2B68F80A20092B5C2B41202F2D2B41250
:0B03290002F2C2B47F057E000202F663
:1003340012034DFFD200120319740129F9E43AFAA9
:0903440012034DFFD2000203195F
:1001F500D2B7C2A6C2A77F0F7E001202F6C2007F49
:10020500381203191202F2C2007F301203191202CA
:10021500F2C2007F0C1203191202F2C2007F06120D
:1002250003191202F2C2007F011203197F057E0035
:030235000202F6CC
:06029E00C292C291D2924F
:0202A400A907A8
:1002A600C291E4FBFAE9139290D2917F027E00128A
:1002B60002F6C291E9C313F90BBB00010AEB64080D
:0302C6004A70E299
:0102C9002212
:100366008D0812029EAF081202A4D291C292C291C7
:070376007F027E000202F687
:1002CA00C291E4FBFAE9C313F9309003430180D2E7
:1002DA00917F027E001202F6C2910BBB00010AEB6B
:0702EA0064084A70E0AF0157
:0102F10022EA
:0C03BA0012029E1202CAD291C292C2919D
:0103C6002214
:10011600E4FD7F8E1203667D557F801203667F01A4
:100126007E001202F67D067F8A1203667F017E003C
:100136001202F67D307F821203667F017E00120274
:10014600F67D237F841203667F017E001202F67D10
:10015600237F861203667F017E001202F67D047FEE
:10016600881203667F017E001202F67D227F8C12C2
:1001760003667F017E001202F67DA67F901203665B
:0E0186007F017E001202F67D807F8E020366EE
:100393001203BAEF5470C4540F75F00AA4FEEF545D
:0303A3000F2EFF1B
:0103A6002234
:10037D007F8D1203BAEF54F0C4540F75F00AA4FE2A
:05038D00EF540F2EFFEC
:010392002248
:10026F00ED75F00A84750800F509ED75F00A84E55F
:10027F00F0FB7A00C200120319742F250912031420
:0F028F00AF03742F2F1203147F057E000202F6B7
:1003A7001201F51202F21201161202F27F057E0007
:0303B7000202F649
:10008F00C2007F81120319D2007F32120319D200EE
:10009F007F30120319C2007F831203197B007A008D
:1000AF00793A120334C2007F851203197A00793C22
:1000BF00120334C2007F871203197A00793E1203AC
:1000CF0034C2007F921203197A007941120334C2AD
:1000DF00007F941203197A007943120334C2007F10
:1000EF00961203197A007945120334C2007F8A12DF
:1000FF0003197A007948120334C2007F8B12031957
:07010F007A00794A02033473
:100194001203A77F647E001202F612008F12037D01
:1001A400AD077F8212026F7F89120393AD077F84AC
:1001B40012026F7F87120393AD077F8612026F7F4F
:1001C40081120393AD077F9512026F7F831203930D
:1001D400AD077F9312026F7F85120393AD077F9162
:1001E40012026F7F8B120393AD077F8C12026F8014
:0101F400AC5E
:10000F00020194E493A3F8E493A34003F68001F272
:10001F0008DFF48029E493A3F85407240CC8C333F2
:10002F00C4540F4420C8834004F456800146F6DFC1
:10003F00E4800B0102040810204080900238E47E17
:10004F00019360BCA3FF543F30E509541FFEE493B6
:10005F00A360010ECF54C025E060A840B8E493A37D
:10006F00FAE493A3F8E493A3C8C582C8CAC583CAA8
:10007F00F0A3C8C582C8CAC583CADFE9DEE780BE60
:01026E00008F
:10034D00BB010689828A83E0225002E722BBFE02AE
:09035D00E32289828A83E49322E1
:00000001FF
