:03000000020B628E
:0C0B6200787FE4F6D8FD758107020BA92E
:020F420020008D
:100751005000570016061B01121E00009602E4000D
:1007610000000051002320416C61726D3A207365D5
:100771007474696E672000510045202054696D65CD
:100781003A2073657474696E67200051000020205F
:100791004B6565702053657474696E672020004E47
:1007A1000037C8D5D2BBB6FEC800CBC4CEE5C1F96F
:1007B100500067323020202F20202F20202020BD04
:1007C100DAC6F8500077202020203A20203A202055
:1007D1002020D6DC2020500087CEC2B6C83A202087
:1007E1002E20432020CEE5D4C2500097CAAAB6C815
:1007F1003A20202E20252020D8A5BEC55000A7C410
:10080100D6D6D33A20203A20202020202020205064
:1008110000B7CAB1BCE43A20203A2020504D202034
:1008210020205000C7CAB1BCE43A20203A20204120
:100831004D202020205000D7202020203A20203A8F
:0808410020202020D6DC20203D
:10092E009000F27417F0A37402F0A37426F0E4A3FF
:10093E00F0A37421F0A37449F07D307F8D120F2245
:10094E009000F2EFF07F89120F229000F3EFF07F0C
:10095E0087120F229000F4EFF07F8B120F2290007F
:10096E00F5EFF07F85120F229000F6EFF07F8312E5
:10097E000F229000F7EFF07F81120F22AD0790004B
:10098E00F2E0FFC4540F75F00AA4FEEF540F2E9040
:10099E000058F09000F3E0FFC4540F75F00AA4FE67
:1009AE00EF540F2E900059F09000F4E0FFC4540F56
:1009BE0075F00AA4FEEF540F2E90005AF09000F539
:1009CE00E090005BF09000F6E0FFC4540F75F00A63
:1009DE00A4FEEF540F2E90005CF09000F7E0FFC4E1
:1009EE00540F75F00AA4FEEF540F2E90005DF0ED3B
:0E09FE00C4540F75F00AA4FFED540F2FA3F0A0
:010A0C0022C7
:10084E00900016E0FF75F00A84C454F0FEEF75F0C8
:10085E000A84E5F02EFC900015E0FE75F00A84C4C3
:10086E0054F0FDEE75F00A84E5F02D9000F2F09054
:10087E000014E0FF75F00A84C454F0FEEF75F00A20
:10088E0084E5F02E9000F3F0900017E09000F4F065
:10089E00900013E0FF75F00A84C454F0FEEF75F07B
:1008AE000A84E5F02E9000F5F0900012E0FF75F04E
:1008BE000A84C454F0FEEF75F00A84E5F02E900021
:1008CE00F6F0900011E0FF75F00A84C454F0FEEFCC
:1008DE0075F00A84E5F02E9000F7F0AF04AD077FB7
:1008EE008C120F159000F2E0FD7F88120F1590000C
:1008FE00F3E0FD7F86120F159000F4E0FD7F8A1263
:10090E000F159000F5E0FD7F84120F159000F6E0B4
:10091E00FD7F82120F159000F7E0FD7F80020F150C
:100A0D00900016E0FF75F00A84C454F0FEEF75F007
:100A1D000A84E5F02EFC900015E0FE75F00A84C402
:100A2D0054F0FDEE75F00A84E5F02D9000F2F09093
:100A3D000014E0FF75F00A84C454F0FEEF75F00A5F
:100A4D0084E5F02E9000F3F0900017E09000F4F0A4
:100A5D00900013E0FF75F00A84C454F0FEEF75F0BA
:100A6D000A84E5F02E9000F5F0900012E0FF75F08D
:100A7D000A84C454F0FEEF75F00A84E5F02E900060
:100A8D00F6F0AF04AD077F8C120F159000F2E0FD6C
:100A9D007F88120F159000F3E0FD7F86120F1590E1
:100AAD0000F4E0FD7F8A120F159000F5E0FD7F84C4
:0D0ABD00120F159000F6E0FD7F82020F156C
:100D5B00900016E0900058F0900015E0900059F0CC
:100D6B00900014E090005AF0900017E090005BF0B8
:100D7B00900013E090005CF0900012E090005DF0AA
:0E0D8B00900011E090005EF012084E020F057D
:10063A00900018E06401600302075090001AE06419
:10064A00016003020750F0900019E0B4070040036C
:10065A00020750900664F828287302067902068B6E
:10066A000206A10206B70206CD02071D0207429042
:10067A000011E004F0E0FFC39460500302075080C9
:10068A0010900012E004F0E0FFC3946050030207E8
:10069A0050EF75F03C807A900013E004F0E0FFC35D
:1006AA0094245003020750EF75F0188064900017E5
:1006BA00E004F0E0FFC394085003020750EF75F01E
:1006CA00078070900014E004F0A3E0FF6401601D4D
:1006DA00EF64036018EF64056013EF6407600EEFC0
:1006EA0064086009EF640A6004EFB40C1090001407
:1006FA00E0FFC39432404FEF75F01F80369000152B
:10070A00E0900014B40206E075F01C8004E075F075
:10071A001E8020900015E004F0E0540FD3940940A5
:10072A0004E02406F0900015E0FFC394134017EF8D
:10073A0075F00C84E5F0F022900016E004F0E0C3B6
:07074A0094994002E4F02243
:100BEE00900018E06402705A90001AE0640170528E
:100BFE00F0900019E014601D14603014603F24035F
:100C0E00704090001DE004F0E0FFC394604033EFAD
:100C1E0075F03C801190001EE004F0E0FFC39424B8
:100C2E004020EF75F01884E5F0F02290001CE07083
:100C3E00047F0180027F0090001CEFF022E4900000
:030C4E0019F02278
:040E9E007FD07E077C
:100EA200EF1FAA0670011E4A600BE4FDEDC39478A1
:050EB20050EE0D80F779
:010EB7002218
:10000300E49000F1F0120DEE120F05C293D296D2D6
:1000130097E4900018F0A3F0A3F090001EF0900076
:100023001DF0900058E0900016F0900059E0900009
:1000330015F090005AE0900014F090005BE09000FF
:1000430017F090005CE0900013F090005DE09000EA
:1000530012F090005EE0900011F012084EE4FF12DF
:100063000CB49000F1EFF06402706B120DEE7D0A98
:100073007C007F647E00120D99900018E004F0E488
:1000830090001BF0900019F0900018E0B4011D12CD
:100093000DEE9000F57401F0A37400F0A37445F025
:1000A3007B10E4FD7F01120C51120E9E900018E0AC
:1000B3006402704F120D5B120DEE9000F57401F0A7
:1000C300A37400F0A37423F07B10E4FD7F01120CF2
:1000D30051120E9E802D9000F1E0B4030E90001992
:1000E300E004F0E0B40702E4F0800D9000F1E0B426
:1000F300041190001A7401F07D0A7C007F647E0075
:10010300120D99900018E0B4032F120DEE9000F534
:100113007401F0A37400F0A37400F07B10E4FD7F7E
:1001230001120C51120E9EE4900018F090001B0473
:10013300F0E4900019F0120D5B900018E064016088
:10014300030202AEA3E070159000F574FFF0A374F0
:100153000FF0A37442F07B027D0402021190001998
:10016300E06401707590005CE0FF75F00A84243050
:100173009000D9F0EF75F00A84E5F02430A3F090F5
:1001830000DC7420F0A3F090005EE0FF75F00A84B9
:1001930024309000DFF0EF75F00A84E5F02430A3FB
:1001A300F09000F57401F0A37400F0A374D7F07B12
:1001B30010E4FD7F02120C5190005BE075F002A485
:1001C3002437F9740035F0FA9000F57401F0A3EACE
:1001D300F0A3E9F07B027D078034900019E0B402BC
:1001E300149000F574FFF0A3740FF0A37442F07B36
:1001F300027D018019900019E0B403179000F57493
:10020300FFF0A3740FF0A37442F07B027D077F021B
:100213000202A8900019E0B404169000F574FFF0F0
:10022300A3740FF0A37442F07B027D047F018075F9
:10023300900019E064057052900058E0FF75F00AD1
:10024300842430900069F0EF75F00A84E5F02430DF
:10025300A3F090006C7420F0A3F090005AE0FF75B7
:10026300F00A84243090006FF0EF75F00A84E5F013
:100273002430A3F09000F57401F0A37400F0A3748C
:1002830067F07B10E4FD7F01801B900019E0B4064A
:10029300179000F574FFF0A3740FF0A37442F07B82
:1002A300027D017F01120C51120A0D900018E064C7
:1002B300027059A3E070149000F574FFF0A3740F5B
:1002C300F0A37442F07B027D04803C900019E0644B
:1002D3000170399000AC7420F0A3F090001DE0FF92
:1002E30075F00A8424309000AFF0EF75F00A84E5CE
:1002F300F02430A3F09000F57401F0A37400F0A390
:1003030074A7F07B10E4FD7F01120C5112063A1220
:100313000BEE12092E120D0A9000E9E0900035F061
:100323009000EBE0900056F0FD9000E8E090003480
:10033300F09000EAE0900036F0FC900058E0FF7582
:10034300F00A842430900069F0EF75F00A84E5F038
:100353002430A3F0900059E0FE75F00A8424309015
:10036300006CF0EE75F00A84E5F02430A3F0900001
:100373005AE0FF75F00A84243090006FF0EF75F0B7
:100383000A84E5F02430A3F090005CE0FF75F00AE6
:10039300842430900079F0EF75F00A84E5F024307E
:1003A300A3F090005DE0FF75F00A84243090007C98
:1003B300F0EF75F00A84E5F02430A3F090005EE0DE
:1003C300FF75F00A84243090007FF0EF75F00A8403
:1003D300E5F02430A3F0900035E0FF75F00A8424A3
:1003E3003090008CF0EF75F00A84E5F02430A3F030
:1003F300ED75F00A84243090008FF0900034E0FF14
:1004030075F00A84243090009CF0EF75F00A84E5BF
:10041300F02430A3F0EC75F00A84243090009FF0B0
:1004230090001EE0FF75F00A8424309000ACF0EFDA
:1004330075F00A84E5F02430A3F090001DE0FF7509
:10044300F00A8424309000AFF0EF75F00A84E5F0F1
:100453002430A3F0900018E064026003020580904A
:1004630000F504F0A37400F0A374A7F07B10E4FD7F
:100473007F01120C5190005CE0FFC3940C407CEFB1
:1004830024F4FEE434FF900063F0A3CEF090005D0B
:10049300E0FF900065E4F0A3EFF0900063E0FAA3BF
:1004A300E0FB7C007D0AFFAE02120AF7EF243090D6
:1004B30000BCF07C007D0AAF03AE02120AF7ED2404
:1004C30030A3F0900065E0FAA3E0FB7C007D0AFF17
:1004D300AE02120AF7EF24309000BFF07C007D0AD1
:1004E300AF03AE02120AF7ED2430A3F09000F574C7
:1004F30001F0A37400F0A374B7807990005CE0FF6F
:10050300900063E4F0A3EFF090005DE0FF900065DE
:10051300E4F0A3EFF0900063E0FAA3E0FB7C007D3E
:100523000AFFAE02120AF7EF24309000CCF07C00F1
:100533007D0AAF03AE02120AF7ED2430A3F0900058
:1005430065E0FAA3E0FB7C007D0AFFAE02120AF726
:10055300EF24309000CFF07C007D0AAF03AE02128F
:100563000AF7ED2430A3F09000F57401F0A37400B2
:10057300F0A374C7F07B10E4FD7F02807E9000F54A
:100583007401F0A37400F0A37467F07B10E4FD7FA3
:1005930001120C519000F57401F0A37400F0A374E0
:1005A30077F07B10E4FD7F02120C5190005BE07545
:1005B300F002A42437F9740035F0FA9000F57401C1
:1005C300F0A3EAF0A3E9F07B027D077F02120C514E
:1005D3009000F57401F0A37400F0A37487F07B100E
:1005E300E4FD7F03120C519000F57401F0A3740035
:1005F300F0A37497F07B10E4FD7F04120C5190007C
:100603001EE0FF900013E0B5071790001DE0FF9078
:100613000012E0B5070B7D0A7C007FE07E93120D8C
:10062300992096030200607F057E00120E402096FB
:0706330003020060020060F9
:100EE200AD071FED600BE4FEEEC3946450F20E807A
:010EF200F708
:010EF30022DC
:070F3A00E4FF0FEFB401FB1F
:010F4100228D
:100E82000000000000000000000000000000000060
:0C0E920000000000000000000000002232
:100EF400D297120F3AC2977F19120EE2D297020EBE
:010F0400826A
:100E1700E4FF3097FD120E82E4FE3097010E209713
:100E2700FD9000ECE025E0F04EF00FEFB408E39002
:040E370000ECE0FFEC
:010E3B002294
:100D0A00120EF4D2972097483097FD2097FD120EC5
:100D1A0017A907120E17AC07120E17AB07120E17F8
:100D2A00AA07120E17AE07C297E4FD120F3A0DED8D
:100D3A00B407F8D297E92C2B2AB506149000E8E9F3
:100D4A00F09000EAECF09000E9EBF09000EBEAF0AA
:010D5A002276
:100DC500E4FFD291FEC292000030910D7401A80695
:100DD500088002C333D8FC4FFF0000D291D29200A5
:080DE500000EEEB408DFC2921B
:010DED0022E3
:100E6000E4FEC2920000EF30E004D2918002C29111
:100E70000000D2920000EFC313FF0EEEB408E3C2ED
:010E800092DF
:010E8100224E
:0D0F1500D290120E60AF05120E60C2902245
:0C0F2200E4FED290120E60120DC5C290C9
:010F2E0022A0
:100F0500C290C292E4FD7F8E120F157F80020F15ED
:040E3C007F057E00B0
:100E4000E4FDFCC3ED9FEC9E5015E4FBFA0BBB00E8
:0F0E5000010AEB646E4A70F50DBD00010C80E4E1
:010E5F002270
:100ECF00C2A6C2A5C2A78F80120E3CD2A7120E4097
:030EDF00C2A72285
:100EB800A907D2A6C2A5D2A7120E3CAF018F807F88
:070EC80005120E40C2A72233
:050C51009000F4EBF03F
:100C5600EF24FE600F14601114601324037016ED68
:100C66002480800DED24908008ED24888003ED24F7
:100C7600989000F8F09000F8E0FF120ECFE4A3F091
:100C86009000F4E0FF9000F9E0FEC39F501F900033
:100C9600F5E0FBA3E0FAA3E0F98E82758300120A61
:0D0CA600CAFF120EB89000F9E004F080D3F0
:010CB300221E
:100DEE007F0A7E00120E40D2B2C2B37F19120E409D
:100DFE00D2B37F30120ECF120E3C7F0C120ECF7F6D
:090E0E0006120ECF7F01020ECF87
:040849004100FA016F
:0B0F2F00EF1FAC0670011E4C70F62294
:100CB400EF60069000FA7401F09000FAE0640170AD
:100CC4003030A00930A10630A20320A3247FE87E9F
:100CD40003120F2FE49000FAF020A0037F032220D8
:100CE400A1037F022220A2037F032220A3157F04F5
:100CF4002230A00F30A10C30A20930A3069000FAD4
:050D04007401F07F0006
:010D090022C7
:100D99009000F2EEF0A3EFF0A3ECF0A3EDF09000D9
:100DA900F274FFF5F0120B4C45F0600FB29390000E
:0C0DB900F4E0FEA3E0FF120F2F80E32205
:100B6E00020003E493A3F8E493A34003F68001F29A
:100B7E0008DFF48029E493A3F85407240CC8C33388
:100B8E00C4540F4420C8834004F456800146F6DF57
:100B9E00E4800B0102040810204080900751E47E8F
:100BAE00019360BCA3FF543F30E509541FFEE4934C
:100BBE00A360010ECF54C025E060A840B8E493A313
:100BCE00FAE493A3F8E493A3C8C582C8CAC583CA3E
:100BDE00F0A3C8C582C8CAC583CADFE9DEE780BEF6
:01084D0000AA
:100ACA00BB010CE58229F582E5833AF583E02250E1
:100ADA0006E92582F8E622BBFE06E92582F8E2222B
:0D0AEA00E58229F582E5833AF583E4932245
:100AF700BC000BBE0029EF8DF084FFADF022E4CCE3
:100B0700F875F008EF2FFFEE33FEEC33FCEE9DECAB
:100B1700984005FCEE9DFE0FD5F0E9E4CEFD22EDF1
:100B2700F8F5F0EE8420D21CFEADF075F008EF2F3B
:100B3700FFED33FD4007985006D5F0F222C398FD2C
:050B47000FD5F0EA22C9
:100B4C00A3F8E0C5F025F0F0E5821582700215835C
:060B5C00E0C838F0E822B9
:00000001FF
