:0300000002017585
:0C017500787FE4F6D8FD75810C020003D1
:0501080012011F7F0140
:10010D00AD071FED600BE4FEEEC3946450F20E805C
:01011D00F7EA
:01011E0022BE
:06018100E4FF0FBF01FCCA
:010187002255
:1000EC000000000000000000000000000000000004
:0C00FC00000000000000000000000022D6
:10011F00C2A6C2A5C2A700008F8000000000D2A710
:07012F0000000000C2A7223E
:07018800EF4480FF02011F9C
:10013600D2A6C2A5C2A700008F8000000000D2A7E9
:0701460000000000C2A72227
:10014D007F381201087F0C1201087F061201087F0B
:07015D000112011F02010D58
:0900AA0075F00A84E5F02430FD34
:1000B300AC05AB077F0A12010DAF03120188AF0431
:0800C3001201367F0102010D5C
:10016400D297120181C2977F1912010DD297020012
:01017400EC9E
:1000CB00E4FF3097FD1200ECE4FE3097010E209711
:1000DB00FDE50C25E0F50CEE420C0FBF08E4AF0C70
:0100EB0022F2
:10006600120164D29720973B3097FD2097FD12002E
:10007600CBA9071200CBAD071200CBAC071200CB01
:10008600AB071200CBAE07C297E4FA1201810ABA97
:1000960007F9D297E92D2C2BB5060889088D0A8C0D
:0300A600098B0BB8
:0100A9002234
:1000030012014D1200667D52E4FF1200B37D3A7F68
:10001300011200B3E50875F00A842430FD7F021253
:1000230000B3E5087F031200AA7D257F041200B305
:100033007D547F401200B37D3A7F411200B3E5093E
:1000430075F00A842430FD7F421200B3E5097F4333
:100053001200AA7DDF7F441200B37D437F45120067
:03006300B380A0C7
:00000001FF
